{
  "_format": "hh-sol-artifact-1",
  "contractName": "AttendancePayment",
  "sourceName": "contracts/AttendancePayment.sol",
  "abi": [
    {
      "inputs": [
        {
          "internalType": "address",
          "name": "_tokenAddress",
          "type": "address"
        }
      ],
      "stateMutability": "nonpayable",
      "type": "constructor"
    },
    {
      "anonymous": false,
      "inputs": [
        {
          "indexed": true,
          "internalType": "string",
          "name": "employeeDid",
          "type": "string"
        },
        {
          "indexed": true,
          "internalType": "address",
          "name": "employeeWallet",
          "type": "address"
        },
        {
          "indexed": false,
          "internalType": "string",
          "name": "date",
          "type": "string"
        },
        {
          "indexed": false,
          "internalType": "uint256",
          "name": "hoursWorked",
          "type": "uint256"
        },
        {
          "indexed": false,
          "internalType": "uint256",
          "name": "amountPaid",
          "type": "uint256"
        },
        {
          "indexed": false,
          "internalType": "uint256",
          "name": "timestamp",
          "type": "uint256"
        }
      ],
      "name": "AttendancePaid",
      "type": "event"
    },
    {
      "anonymous": false,
      "inputs": [
        {
          "indexed": true,
          "internalType": "string",
          "name": "employeeDid",
          "type": "string"
        },
        {
          "indexed": false,
          "internalType": "string",
          "name": "date",
          "type": "string"
        },
        {
          "indexed": false,
          "internalType": "uint256",
          "name": "hoursWorked",
          "type": "uint256"
        },
        {
          "indexed": false,
          "internalType": "string",
          "name": "reason",
          "type": "string"
        }
      ],
      "name": "PaymentRejected",
      "type": "event"
    },
    {
      "inputs": [],
      "name": "HOURLY_RATE",
      "outputs": [
        {
          "internalType": "uint256",
          "name": "",
          "type": "uint256"
        }
      ],
      "stateMutability": "view",
      "type": "function"
    },
    {
      "inputs": [],
      "name": "MINIMUM_HOURS",
      "outputs": [
        {
          "internalType": "uint256",
          "name": "",
          "type": "uint256"
        }
      ],
      "stateMutability": "view",
      "type": "function"
    },
    {
      "inputs": [],
      "name": "RATE_DECIMALS",
      "outputs": [
        {
          "internalType": "uint8",
          "name": "",
          "type": "uint8"
        }
      ],
      "stateMutability": "view",
      "type": "function"
    },
    {
      "inputs": [],
      "name": "admin",
      "outputs": [
        {
          "internalType": "address",
          "name": "",
          "type": "address"
        }
      ],
      "stateMutability": "view",
      "type": "function"
    },
    {
      "inputs": [
        {
          "internalType": "address",
          "name": "_newAdmin",
          "type": "address"
        }
      ],
      "name": "changeAdmin",
      "outputs": [],
      "stateMutability": "nonpayable",
      "type": "function"
    },
    {
      "inputs": [
        {
          "internalType": "string",
          "name": "_employeeDid",
          "type": "string"
        },
        {
          "internalType": "string",
          "name": "_date",
          "type": "string"
        }
      ],
      "name": "checkPaymentStatus",
      "outputs": [
        {
          "internalType": "bool",
          "name": "",
          "type": "bool"
        }
      ],
      "stateMutability": "view",
      "type": "function"
    },
    {
      "inputs": [
        {
          "internalType": "uint256",
          "name": "_amount",
          "type": "uint256"
        }
      ],
      "name": "depositTokens",
      "outputs": [],
      "stateMutability": "nonpayable",
      "type": "function"
    },
    {
      "inputs": [],
      "name": "getContractBalance",
      "outputs": [
        {
          "internalType": "uint256",
          "name": "",
          "type": "uint256"
        }
      ],
      "stateMutability": "view",
      "type": "function"
    },
    {
      "inputs": [
        {
          "internalType": "string",
          "name": "",
          "type": "string"
        },
        {
          "internalType": "string",
          "name": "",
          "type": "string"
        }
      ],
      "name": "hasPaid",
      "outputs": [
        {
          "internalType": "bool",
          "name": "",
          "type": "bool"
        }
      ],
      "stateMutability": "view",
      "type": "function"
    },
    {
      "inputs": [
        {
          "internalType": "string",
          "name": "_employeeDid",
          "type": "string"
        },
        {
          "internalType": "address",
          "name": "_employeeWallet",
          "type": "address"
        },
        {
          "internalType": "string",
          "name": "_date",
          "type": "string"
        },
        {
          "internalType": "uint256",
          "name": "_hoursWorked",
          "type": "uint256"
        },
        {
          "internalType": "uint256",
          "name": "_amountInTokenUnits",
          "type": "uint256"
        }
      ],
      "name": "payAttendance",
      "outputs": [],
      "stateMutability": "nonpayable",
      "type": "function"
    },
    {
      "inputs": [],
      "name": "paymentToken",
      "outputs": [
        {
          "internalType": "contract IERC20",
          "name": "",
          "type": "address"
        }
      ],
      "stateMutability": "view",
      "type": "function"
    },
    {
      "inputs": [
        {
          "internalType": "uint256",
          "name": "_amount",
          "type": "uint256"
        }
      ],
      "name": "withdrawTokens",
      "outputs": [],
      "stateMutability": "nonpayable",
      "type": "function"
    }
  ],
  "bytecode": "0x60803461007a57601f610bb638819003918201601f19168301916001600160401b0383118484101761007f5780849260209460405283398101031261007a57516001600160a01b0381169081900361007a5760018060a01b0319338160005416176000556001541617600155604051610b2090816100968239f35b600080fd5b634e487b7160e01b600052604160045260246000fdfe608060408181526004918236101561001657600080fd5b600092833560e01c9182633013ce291461090057508163315a095d146107db578163398dc765146104085781633a251d0b146103ec5781635a604c52146103d057816363965565146103b45781636f9fb98a1461031c5781638f28397014610290578163d8ca978f14610273578163dd49756e1461011d57508063edbb86f6146100d35763f851a440146100a957600080fd5b346100cf57816003193601126100cf57905490516001600160a01b039091168152602090f35b5080fd5b50346100cf5760209060ff610112836101026100ee366109b9565b929081875193828580945193849201610a00565b8101600281520301902090610a23565b541690519015158152f35b9190503461026f576020908160031936011261026b578360018060a01b03610149818354163314610a8a565b60015416825163313ce56760e01b815284818781855afa9081156102615761018a61018360ff8895946064948891610234575b5016610adc565b8835610a49565b855194859384926323b872dd60e01b8452338b85015230602485015260448401525af190811561022a5785916101fd575b50156101c5578380f35b5162461bcd60e51b8152918201526014602482015273151bdad95b8819195c1bdcda5d0819985a5b195960621b604482015260649150fd5b61021d9150833d8511610223575b6102158183610925565b810190610a72565b386101bb565b503d61020b565b82513d87823e3d90fd5b6102549150873d891161025a575b61024c8183610925565b810190610ac3565b3861017c565b503d610242565b84513d85823e3d90fd5b8380fd5b8280fd5b9190503461026f578260031936011261026f576020925051908152f35b9190503461026f57602036600319011261026f576001600160a01b03823581811693919290849003610318576102cb85549384163314610a8a565b83156102e35750506001600160a01b03191617815580f35b906020606492519162461bcd60e51b8352820152600f60248201526e496e76616c6964206164647265737360881b6044820152fd5b8480fd5b9190503461026f578260031936011261026f5760015481516370a0823160e01b81523093810193909352602090839060249082906001600160a01b03165afa9182156103aa578392610373575b6020838351908152f35b9091506020813d82116103a2575b8161038e60209383610925565b8101031261026f5760209250519038610369565b3d9150610381565b81513d85823e3d90fd5b5050346100cf5760209060ff610112836101026100ee366109b9565b5050346100cf57816003193601126100cf576020905160128152f35b5050346100cf57816003193601126100cf576020905160028152f35b9190503461026f5760a036600319011261026f5767ffffffffffffffff82358181116103185761043b903690850161095d565b6001600160a01b03602480358281169690939092908785036107d75760449586359081116107d357610470903690860161095d565b9360649081359760843595858d54163303610795578a519885519660209a8b818a81838c019c6104a0918e610a00565b810160028152030190206104b4908b610a23565b5460ff16610755576101908c106107155788156106dc576001548d516370a0823160e01b81523087820152911691908f908c818681875afa9182156106d157908b9261069c575b501061065c578c5163a9059cbb60e01b81526001600160a01b03909116858201908152602081018a90528f928c9183919082908690829060400103925af19182156106515791610634575b50156105fe5750505050916105bb60a094927fd08117d4613308b4a2274859f91526131165450aecbc11b3c96d0ef1e756349d9796946105a08a5187818451610590818389610a00565b8101600281520301902086610a23565b600160ff198254161790558951928392839251928391610a00565b8101039020968051958694608086526105e2855180968160808a0152838a8a019101610a00565b850152830152426060830152601f01601f19168101030190a380f35b8a5162461bcd60e51b815292830189905260159083015274151bdad95b881d1c985b9cd9995c8819985a5b1959605a1b90820152fd5b61064b91508a3d8c11610223576102158183610925565b38610546565b8d51903d90823e3d90fd5b50508a5162461bcd60e51b8152928301899052601d908301527f496e73756666696369656e7420636f6e74726163742062616c616e636500000090820152fd5b8092508d8092503d83116106ca575b6106b58183610925565b810103126106c657899051386104fb565b8f80fd5b503d6106ab565b8f51903d90823e3d90fd5b50508a5162461bcd60e51b815292830189905260169083015275125b9d985b1a59081c185e5b595b9d08185b5bdd5b9d60521b90820152fd5b50508a5162461bcd60e51b81529283018990526018908301527f4d696e696d756d203420686f757273207265717569726564000000000000000090820152fd5b50508a5162461bcd60e51b8152928301899052601a908301527f416c7265616479207061696420666f722074686973206461746500000000000090820152fd5b90601f7f4f6e6c792061646d696e2063616e2070726f63657373207061796d656e7473009260208d519562461bcd60e51b8752860152840152820152fd5b8980fd5b8880fd5b9190503461026f576020908160031936011261026b5783546001600160a01b039081169061080a338314610a8a565b60015416825163313ce56760e01b815284818781855afa9081156108f6579161084561018360ff61087c969489968c91610234575016610adc565b855163a9059cbb60e01b81526001600160a01b0390931688840190815260208101919091529193849283918a918391604090910190565b03925af190811561022a5785916108d9575b5015610898578380f35b5162461bcd60e51b815291820152601760248201527f546f6b656e207769746864726177616c206661696c6564000000000000000000604482015260649150fd5b6108f09150833d8511610223576102158183610925565b3861088e565b84513d89823e3d90fd5b8490346100cf57816003193601126100cf576001546001600160a01b03168152602090f35b90601f8019910116810190811067ffffffffffffffff82111761094757604052565b634e487b7160e01b600052604160045260246000fd5b81601f820112156109b45780359067ffffffffffffffff82116109475760405192610992601f8401601f191660200185610925565b828452602083830101116109b457816000926020809301838601378301015290565b600080fd5b9060406003198301126109b45767ffffffffffffffff6004358181116109b457836109e69160040161095d565b926024359182116109b4576109fd9160040161095d565b90565b60005b838110610a135750506000910152565b8181015183820152602001610a03565b602090610a3d928260405194838680955193849201610a00565b82019081520301902090565b81810292918115918404141715610a5c57565b634e487b7160e01b600052601160045260246000fd5b908160209103126109b4575180151581036109b45790565b15610a9157565b60405162461bcd60e51b815260206004820152600a60248201526927b7363c9030b236b4b760b11b6044820152606490fd5b908160209103126109b4575160ff811681036109b45790565b604d8111610a5c57600a0a9056fea264697066735822122027bf2a3246704ecd80f8ce145336bb7520ee3233a99486da45530e0e2f953ea964736f6c63430008130033",
  "linkReferences": {},
  "deployedLinkReferences": {}
}