{
  "_format": "hh-sol-artifact-1",
  "contractName": "SimpleVotingManagement",
  "sourceName": "contracts/SimpleVotingManagement.sol",
  "abi": [
    {
      "anonymous": false,
      "inputs": [
        {
          "indexed": true,
          "internalType": "string",
          "name": "departmentId",
          "type": "string"
        },
        {
          "indexed": true,
          "internalType": "uint256",
          "name": "periodId",
          "type": "uint256"
        },
        {
          "indexed": true,
          "internalType": "string",
          "name": "employeeDid",
          "type": "string"
        },
        {
          "indexed": false,
          "internalType": "address",
          "name": "walletAddress",
          "type": "address"
        }
      ],
      "name": "CandidateRegistered",
      "type": "event"
    },
    {
      "anonymous": false,
      "inputs": [
        {
          "indexed": true,
          "internalType": "address",
          "name": "previousOwner",
          "type": "address"
        },
        {
          "indexed": true,
          "internalType": "address",
          "name": "newOwner",
          "type": "address"
        }
      ],
      "name": "OwnershipTransferred",
      "type": "event"
    },
    {
      "anonymous": false,
      "inputs": [
        {
          "indexed": true,
          "internalType": "string",
          "name": "departmentId",
          "type": "string"
        },
        {
          "indexed": true,
          "internalType": "uint256",
          "name": "periodId",
          "type": "uint256"
        },
        {
          "indexed": true,
          "internalType": "address",
          "name": "voter",
          "type": "address"
        },
        {
          "indexed": false,
          "internalType": "string",
          "name": "candidateDid",
          "type": "string"
        }
      ],
      "name": "VoteCast",
      "type": "event"
    },
    {
      "anonymous": false,
      "inputs": [
        {
          "indexed": true,
          "internalType": "string",
          "name": "departmentId",
          "type": "string"
        },
        {
          "indexed": true,
          "internalType": "uint256",
          "name": "periodId",
          "type": "uint256"
        },
        {
          "indexed": false,
          "internalType": "uint256",
          "name": "startTime",
          "type": "uint256"
        },
        {
          "indexed": false,
          "internalType": "uint256",
          "name": "endTime",
          "type": "uint256"
        }
      ],
      "name": "VotingPeriodCreated",
      "type": "event"
    },
    {
      "anonymous": false,
      "inputs": [
        {
          "indexed": true,
          "internalType": "string",
          "name": "departmentId",
          "type": "string"
        },
        {
          "indexed": true,
          "internalType": "uint256",
          "name": "periodId",
          "type": "uint256"
        },
        {
          "indexed": false,
          "internalType": "string",
          "name": "winnerDid",
          "type": "string"
        },
        {
          "indexed": false,
          "internalType": "uint256",
          "name": "winnerVotes",
          "type": "uint256"
        }
      ],
      "name": "VotingPeriodEnded",
      "type": "event"
    },
    {
      "inputs": [
        {
          "internalType": "string",
          "name": "departmentId",
          "type": "string"
        },
        {
          "internalType": "uint256",
          "name": "durationInDays",
          "type": "uint256"
        }
      ],
      "name": "createVotingPeriod",
      "outputs": [],
      "stateMutability": "nonpayable",
      "type": "function"
    },
    {
      "inputs": [
        {
          "internalType": "string",
          "name": "",
          "type": "string"
        }
      ],
      "name": "currentPeriodId",
      "outputs": [
        {
          "internalType": "uint256",
          "name": "",
          "type": "uint256"
        }
      ],
      "stateMutability": "view",
      "type": "function"
    },
    {
      "inputs": [
        {
          "internalType": "string",
          "name": "departmentId",
          "type": "string"
        },
        {
          "internalType": "uint256",
          "name": "periodId",
          "type": "uint256"
        }
      ],
      "name": "endVotingPeriod",
      "outputs": [],
      "stateMutability": "nonpayable",
      "type": "function"
    },
    {
      "inputs": [
        {
          "internalType": "string",
          "name": "employeeDid",
          "type": "string"
        },
        {
          "internalType": "string",
          "name": "departmentId",
          "type": "string"
        },
        {
          "internalType": "uint256",
          "name": "periodId",
          "type": "uint256"
        }
      ],
      "name": "getCandidateWallet",
      "outputs": [
        {
          "internalType": "address",
          "name": "",
          "type": "address"
        }
      ],
      "stateMutability": "view",
      "type": "function"
    },
    {
      "inputs": [
        {
          "internalType": "string",
          "name": "departmentId",
          "type": "string"
        },
        {
          "internalType": "uint256",
          "name": "periodId",
          "type": "uint256"
        }
      ],
      "name": "getTopCandidate",
      "outputs": [
        {
          "internalType": "string",
          "name": "employeeDid",
          "type": "string"
        },
        {
          "internalType": "uint256",
          "name": "votes",
          "type": "uint256"
        }
      ],
      "stateMutability": "view",
      "type": "function"
    },
    {
      "inputs": [
        {
          "internalType": "string",
          "name": "employeeDid",
          "type": "string"
        },
        {
          "internalType": "string",
          "name": "departmentId",
          "type": "string"
        },
        {
          "internalType": "uint256",
          "name": "periodId",
          "type": "uint256"
        }
      ],
      "name": "getVoteCount",
      "outputs": [
        {
          "internalType": "uint256",
          "name": "",
          "type": "uint256"
        }
      ],
      "stateMutability": "view",
      "type": "function"
    },
    {
      "inputs": [],
      "name": "owner",
      "outputs": [
        {
          "internalType": "address",
          "name": "",
          "type": "address"
        }
      ],
      "stateMutability": "view",
      "type": "function"
    },
    {
      "inputs": [
        {
          "internalType": "string",
          "name": "departmentId",
          "type": "string"
        },
        {
          "internalType": "uint256",
          "name": "periodId",
          "type": "uint256"
        },
        {
          "internalType": "string",
          "name": "employeeDid",
          "type": "string"
        },
        {
          "internalType": "address",
          "name": "walletAddress",
          "type": "address"
        }
      ],
      "name": "registerCandidate",
      "outputs": [],
      "stateMutability": "nonpayable",
      "type": "function"
    },
    {
      "inputs": [],
      "name": "renounceOwnership",
      "outputs": [],
      "stateMutability": "nonpayable",
      "type": "function"
    },
    {
      "inputs": [
        {
          "internalType": "address",
          "name": "newOwner",
          "type": "address"
        }
      ],
      "name": "transferOwnership",
      "outputs": [],
      "stateMutability": "nonpayable",
      "type": "function"
    },
    {
      "inputs": [
        {
          "internalType": "string",
          "name": "departmentId",
          "type": "string"
        },
        {
          "internalType": "uint256",
          "name": "periodId",
          "type": "uint256"
        },
        {
          "internalType": "string",
          "name": "candidateDid",
          "type": "string"
        }
      ],
      "name": "vote",
      "outputs": [],
      "stateMutability": "nonpayable",
      "type": "function"
    },
    {
      "inputs": [
        {
          "internalType": "string",
          "name": "",
          "type": "string"
        },
        {
          "internalType": "uint256",
          "name": "",
          "type": "uint256"
        }
      ],
      "name": "votingPeriods",
      "outputs": [
        {
          "internalType": "string",
          "name": "departmentId",
          "type": "string"
        },
        {
          "internalType": "uint256",
          "name": "periodId",
          "type": "uint256"
        },
        {
          "internalType": "uint256",
          "name": "startTime",
          "type": "uint256"
        },
        {
          "internalType": "uint256",
          "name": "endTime",
          "type": "uint256"
        },
        {
          "internalType": "bool",
          "name": "isActive",
          "type": "bool"
        },
        {
          "internalType": "bool",
          "name": "isEnded",
          "type": "bool"
        }
      ],
      "stateMutability": "view",
      "type": "function"
    }
  ],
  "bytecode": "0x6080806040523461005b5760008054336001600160a01b0319821681178355916001600160a01b03909116907f8be0079c531659141344cd1fd0a4f28419497f9722a3daafe3b4186f6b6457e09080a361124290816100618239f35b600080fdfe60406080815260048036101561001457600080fd5b600091823560e01c8063122c447a14610a48578063215ef93b14610a10578063330402641461086c5780635f68145c14610833578063715018a6146107d95780638c799247146107795780638da5cb5b14610751578063a0c450cb14610496578063bf0e5f4114610450578063cf9582e3146103a7578063d47ec969146101705763f2fde38b146100a457600080fd5b3461016c57602036600319011261016c576001600160a01b03823581811693919290849003610168576100d5610e33565b831561011657505082546001600160a01b0319811683178455167f8be0079c531659141344cd1fd0a4f28419497f9722a3daafe3b4186f6b6457e08380a380f35b906020608492519162461bcd60e51b8352820152602660248201527f4f776e61626c653a206e6577206f776e657220697320746865207a65726f206160448201526564647265737360d01b6064820152fd5b8480fd5b8280fd5b503461016c57606036600319011261016c5767ffffffffffffffff908235828111610168576101a29036908501610bf6565b602435926044359081116103a3576101bd9036908601610bf6565b90825194858251602097816101d68a9383858901610c84565b8101600281520301902085885286528387206102008282015460ff81169081610394575b50610fbb565b600281015442101580610386575b61021790610ffb565b600881019133895282885260ff868a205416610353576005820180548a91878b0190835b838110610303575b50505050156102c057506102ba927f1a88a8290f7368f7d3d44326bc11691659008403bab86cc424dc1ea4232a23ae949261028460066102a8940185610d3d565b61028e815461103f565b9055338a528852858920805460ff19166001179055610f9b565b93519182918783523397830190610ca7565b0390a480f35b855162461bcd60e51b8152908101889052601860248201527f43616e64696461746520646f6573206e6f7420657869737400000000000000006044820152606490fd5b61031f6103266103138385611064565b508d5192838092610d9d565b0382610bd4565b8d81519101208a518420146103435761033e9061103f565b61023b565b5050505050600138808080610243565b855162461bcd60e51b8152908101889052600d60248201526c105b1c9958591e481d9bdd1959609a1b6044820152606490fd5b50600381015442111561020e565b60ff915060081c1615386101fa565b8580fd5b50903461016c5760ff826104299460206103d76103c336610c52565b929081865193828580945193849201610c84565b810160028152030190209082526020522092805193610401856103fa8184610d9d565b0386610bd4565b600181015493600282015490600383015492015492805197889760c0895260c0890190610ca7565b95602088015286015260608501528181161515608085015260081c16151560a08301520390f35b8382346104925760209161048961047161046936610ccc565b919290610d17565b908452855260078460018060a01b0394200190610d3d565b54169051908152f35b5080fd5b50903461016c57608036600319011261016c5767ffffffffffffffff908035828111610168576104c99036908301610bf6565b90602480359360443590811161074d576104e69036908401610bf6565b926064356001600160a01b03811692908390036107495786519384835160209681610515899383858a01610c84565b81016002815203019020878a5285528789209161053f8284015460ff811690816103945750610fbb565b60028301544210158061073b575b61055690610ffb565b8651156106f95784156106be57600583018054908b898901815b8d858210610677575b505050610640576801000000000000000082101561062e57906105a191600182018155611064565b92909261061e5750507f281dfdf7c7bfc1187833246439be7abc6dba6b0cfa83828c5feea14a3d104c8a9493926105fa6007610615946105e48a61060f96610e8b565b8c6105f2600683018c610d3d565b550188610d3d565b80546001600160a01b03191685179055610f9b565b94610f9b565b9551908152a480f35b634e487b7160e01b8b528a905289fd5b634e487b7160e01b8c5260418452828cfd5b8a5162461bcd60e51b815280850189905260128185015271105b1c9958591e481c9959da5cdd195c995960721b6044820152606490fd5b61069461031f916106888488611064565b50905192838092610d9d565b8b81519101208c518320146106b1576106ac9061103f565b610570565b505050600138808d610579565b885162461bcd60e51b815291820186905260169082015275496e76616c69642077616c6c6574206164647265737360501b6044820152606490fd5b885162461bcd60e51b8152918201869052601c908201527f456d706c6f796565204449442063616e6e6f7420626520656d707479000000006044820152606490fd5b50600383015442111561054d565b8780fd5b8680fd5b838234610492578160031936011261049257905490516001600160a01b039091168152602090f35b5082346107d65760203660031901126107d65782359067ffffffffffffffff82116107d6575060206107b281946107c493369101610bf6565b81845193828580945193849201610c84565b81016003815203019020549051908152f35b80fd5b83346107d657806003193601126107d6576107f2610e33565b80546001600160a01b03198116825581906001600160a01b03167f8be0079c531659141344cd1fd0a4f28419497f9722a3daafe3b4186f6b6457e08280a380f35b8382346104925761086461085760068360209561084f36610ccc565b919590610d17565b9082528752200190610d3d565b549051908152f35b50903461016c5761087c36610c52565b92610885610e33565b80518083516020928161089c859383858a01610c84565b810160028152030190208587528152818620938085019081549060ff8260081c166109dd57600387015442106109a3575061ffff191661010017905581516108e381610ba2565b868152928694876005820190600682549301905b83811061094d57505050509061092f7f916da3ff0a4e2efc4be8ff3169229809d8997cd0835396676e54c59da916c56a949392610f9b565b946109438351948486958652850190610ca7565b918301520390a380f35b6109618261095b8386611064565b50611092565b54898111610979575b506109749061103f565b6108f7565b9850965061097461031f61099c6109908a86611064565b50895192838092610d9d565b979061096a565b845162461bcd60e51b8152908101849052601460248201527314195c9a5bd9081b9bdd08195b991959081e595d60621b6044820152606490fd5b845162461bcd60e51b8152908101849052600d60248201526c105b1c9958591e48195b991959609a1b6044820152606490fd5b5082346107d65750610a2a610a2436610c52565b90611124565b8251838152928392610a3e91840190610ca7565b9060208301520390f35b5082903461049257610a5936610c52565b91610a62610e33565b815115610b60576001805401928360015581519083519160208181870194610a8b818388610c84565b8101600281520301902085875260205282862091610aa98584610e8b565b85600184015560028301914283556201518090818102918183041490151715610b4d57420192834211610b4d579186610b2a6020610b3e948c8760037f2ef6a8f20f3f784b1f30d0f6b82025ded0d2b7a1a2b723089bd96098bb8f5d5d9b9a990198895501600161ffff198254161790558751809381928c51928391610c84565b810160038152030190205554915494610f9b565b9382519182526020820152a380f35b634e487b7160e01b885260118952602488fd5b5162461bcd60e51b8152602081860152601d60248201527f4465706172746d656e742049442063616e6e6f7420626520656d7074790000006044820152606490fd5b6020810190811067ffffffffffffffff821117610bbe57604052565b634e487b7160e01b600052604160045260246000fd5b90601f8019910116810190811067ffffffffffffffff821117610bbe57604052565b81601f82011215610c4d5780359067ffffffffffffffff8211610bbe5760405192610c2b601f8401601f191660200185610bd4565b82845260208383010111610c4d57816000926020809301838601378301015290565b600080fd5b6040600319820112610c4d576004359067ffffffffffffffff8211610c4d57610c7d91600401610bf6565b9060243590565b60005b838110610c975750506000910152565b8181015183820152602001610c87565b90602091610cc081518092818552858086019101610c84565b601f01601f1916010190565b906060600319830112610c4d5767ffffffffffffffff600435818111610c4d5783610cf991600401610bf6565b92602435918211610c4d57610d1091600401610bf6565b9060443590565b6020610d30918160405193828580945193849201610c84565b8101600281520301902090565b602090610d57928260405194838680955193849201610c84565b82019081520301902090565b90600182811c92168015610d93575b6020831014610d7d57565b634e487b7160e01b600052602260045260246000fd5b91607f1691610d72565b9060009291805491610dae83610d63565b918282526001938481169081600014610e105750600114610dd0575b50505050565b90919394506000526020928360002092846000945b838610610dfc575050505001019038808080610dca565b805485870183015294019385908201610de5565b9294505050602093945060ff191683830152151560051b01019038808080610dca565b6000546001600160a01b03163303610e4757565b606460405162461bcd60e51b815260206004820152602060248201527f4f776e61626c653a2063616c6c6572206973206e6f7420746865206f776e65726044820152fd5b919091825167ffffffffffffffff8111610bbe57610ea98254610d63565b601f8111610f53575b50602080601f8311600114610eef575081929394600092610ee4575b50508160011b916000199060031b1c1916179055565b015190503880610ece565b90601f198316958460005282600020926000905b888210610f3b57505083600195969710610f22575b505050811b019055565b015160001960f88460031b161c19169055388080610f18565b80600185968294968601518155019501930190610f03565b600083815260208120601f840160051c81019260208510610f91575b601f0160051c01915b828110610f86575050610eb2565b818155600101610f78565b9092508290610f6f565b610fb390602060405192828480945193849201610c84565b810103902090565b15610fc257565b60405162461bcd60e51b8152602060048201526011602482015270506572696f64206e6f742061637469766560781b6044820152606490fd5b1561100257565b60405162461bcd60e51b815260206004820152601560248201527413dd5d1cda5919481d9bdd1a5b99c81c195c9a5bd9605a1b6044820152606490fd5b600019811461104e5760010190565b634e487b7160e01b600052601160045260246000fd5b805482101561107c5760005260206000200190600090565b634e487b7160e01b600052603260045260246000fd5b90604051809260009080546110a681610d63565b9160019180831690811561110a57506001146110cc575b50505060209281520301902090565b60009081526020808220969450915b8382106110f457505050602093508201909238806110bd565b86548883015295860195879550908201906110db565b60ff191686525050508015150282019050602038806110bd565b919091611141602060409281845193828580945193849201610c84565b810160028152030190206000938452602052808320906005820180549182156111f7576111836020878461117c995220825197888092610d9d565b0387610bd4565b61119260068795018097610d3d565b549560015b8481106111a75750505050509190565b6111b58261095b8387611064565b548881116111cd575b506111c89061103f565b611197565b975094506111c861031f6111f06111e48887611064565b50855192838092610d9d565b95906111be565b925050505161120581610ba2565b828152919056fea264697066735822122005ee19afebd328f2a2cb52466fbb4ea6efd6fd5096a0f0672b9a1ab767b67e9464736f6c63430008130033",
  "linkReferences": {},
  "deployedLinkReferences": {}
}