{"contracts/HRPayroll.sol":{"HRPayroll":{"abi":[{"inputs":[{"internalType":"address","name":"_tokenAddress","type":"address"}],"stateMutability":"nonpayable","type":"constructor"},{"anonymous":false,"inputs":[{"indexed":false,"internalType":"string","name":"employeeDid","type":"string"},{"indexed":false,"internalType":"address","name":"walletAddress","type":"address"},{"indexed":false,"internalType":"uint256","name":"amount","type":"uint256"}],"name":"SalaryPaid","type":"event"},{"inputs":[],"name":"admin","outputs":[{"internalType":"address","name":"","type":"address"}],"stateMutability":"view","type":"function"},{"inputs":[{"internalType":"string","name":"_employeeDid","type":"string"},{"internalType":"address","name":"_employeeWallet","type":"address"},{"internalType":"uint256","name":"_amount","type":"uint256"}],"name":"paySalary","outputs":[],"stateMutability":"nonpayable","type":"function"},{"inputs":[],"name":"paymentToken","outputs":[{"internalType":"contract IERC20","name":"","type":"address"}],"stateMutability":"view","type":"function"}],"evm":{"bytecode":{"linkReferences":{},"object":"60803461007a57601f61036838819003918201601f19168301916001600160401b0383118484101761007f5780849260209460405283398101031261007a57516001600160a01b0381169081900361007a5760018060a01b03193381600054161760005560015416176001556040516102d290816100968239f35b600080fd5b634e487b7160e01b600052604160045260246000fdfe608060408181526004918236101561001657600080fd5b600092833560e01c9182633013ce291461023f57508163ead2c18f14610070575063f851a4401461004657600080fd5b3461006c578160031936011261006c57905490516001600160a01b039091168152602090f35b5080fd5b83833461006c57606036600319011261006c57823567ffffffffffffffff9384821161023b573660238301121561023b578181013594851161022857825190602095601f19936100c78886601f8501160185610264565b81845236602483830101116101e45781879260248a930183870137840101526001600160a01b03602435818116959192908690036101e457604435928088541633036101f9578660448a9260015416938a8651958694859363a9059cbb60e01b85528401528860248401525af180156101ef576101b4575b5080519460608652835193846060880152875b8581106101a05750509260809492601f928795899a7f18b0b996c3433eaef697548a8b2364643b72473b892d0e9fc185a052119d38b89a89868a01015287015285015201168101030190a180f35b8181018a0151888201608001528901610152565b8781813d83116101e8575b6101c98183610264565b810103126101e45751801515036101e0578761013f565b8580fd5b8680fd5b503d6101bf565b82513d89823e3d90fd5b5087606492519162461bcd60e51b8352820152600a60248201526927b7363c9020b236b4b760b11b6044820152fd5b634e487b7160e01b845260419052602483fd5b8380fd5b84903461006c578160031936011261006c576001546001600160a01b03168152602090f35b90601f8019910116810190811067ffffffffffffffff82111761028657604052565b634e487b7160e01b600052604160045260246000fdfea264697066735822122038c3c9e132b29e755d7915c9509812150d8d12bdb4fe77d941da860bf9d0634f64736f6c63430008130033","opcodes":"PUSH1 0x80 CALLVALUE PUSH2 0x7A JUMPI PUSH1 0x1F PUSH2 0x368 CODESIZE DUP2 SWAP1 SUB SWAP2 DUP3 ADD PUSH1 0x1F NOT AND DUP4 ADD SWAP2 PUSH1 0x1 PUSH1 0x1 PUSH1 0x40 SHL SUB DUP4 GT DUP5 DUP5 LT OR PUSH2 0x7F JUMPI DUP1 DUP5 SWAP3 PUSH1 0x20 SWAP5 PUSH1 0x40 MSTORE DUP4 CODECOPY DUP2 ADD SUB SLT PUSH2 0x7A JUMPI MLOAD PUSH1 0x1 PUSH1 0x1 PUSH1 0xA0 SHL SUB DUP2 AND SWAP1 DUP2 SWAP1 SUB PUSH2 0x7A JUMPI PUSH1 0x1 DUP1 PUSH1 0xA0 SHL SUB NOT CALLER DUP2 PUSH1 0x0 SLOAD AND OR PUSH1 0x0 SSTORE PUSH1 0x1 SLOAD AND OR PUSH1 0x1 SSTORE PUSH1 0x40 MLOAD PUSH2 0x2D2 SWAP1 DUP2 PUSH2 0x96 DUP3 CODECOPY RETURN JUMPDEST PUSH1 0x0 DUP1 REVERT JUMPDEST PUSH4 0x4E487B71 PUSH1 0xE0 SHL PUSH1 0x0 MSTORE PUSH1 0x41 PUSH1 0x4 MSTORE PUSH1 0x24 PUSH1 0x0 REVERT INVALID PUSH1 0x80 PUSH1 0x40 DUP2 DUP2 MSTORE PUSH1 0x4 SWAP2 DUP3 CALLDATASIZE LT ISZERO PUSH2 0x16 JUMPI PUSH1 0x0 DUP1 REVERT JUMPDEST PUSH1 0x0 SWAP3 DUP4 CALLDATALOAD PUSH1 0xE0 SHR SWAP2 DUP3 PUSH4 0x3013CE29 EQ PUSH2 0x23F JUMPI POP DUP2 PUSH4 0xEAD2C18F EQ PUSH2 0x70 JUMPI POP PUSH4 0xF851A440 EQ PUSH2 0x46 JUMPI PUSH1 0x0 DUP1 REVERT JUMPDEST CALLVALUE PUSH2 0x6C JUMPI DUP2 PUSH1 0x3 NOT CALLDATASIZE ADD SLT PUSH2 0x6C JUMPI SWAP1 SLOAD SWAP1 MLOAD PUSH1 0x1 PUSH1 0x1 PUSH1 0xA0 SHL SUB SWAP1 SWAP2 AND DUP2 MSTORE PUSH1 0x20 SWAP1 RETURN JUMPDEST POP DUP1 REVERT JUMPDEST DUP4 DUP4 CALLVALUE PUSH2 0x6C JUMPI PUSH1 0x60 CALLDATASIZE PUSH1 0x3 NOT ADD SLT PUSH2 0x6C JUMPI DUP3 CALLDATALOAD PUSH8 0xFFFFFFFFFFFFFFFF SWAP4 DUP5 DUP3 GT PUSH2 0x23B JUMPI CALLDATASIZE PUSH1 0x23 DUP4 ADD SLT ISZERO PUSH2 0x23B JUMPI DUP2 DUP2 ADD CALLDATALOAD SWAP5 DUP6 GT PUSH2 0x228 JUMPI DUP3 MLOAD SWAP1 PUSH1 0x20 SWAP6 PUSH1 0x1F NOT SWAP4 PUSH2 0xC7 DUP9 DUP7 PUSH1 0x1F DUP6 ADD AND ADD DUP6 PUSH2 0x264 JUMP JUMPDEST DUP2 DUP5 MSTORE CALLDATASIZE PUSH1 0x24 DUP4 DUP4 ADD ADD GT PUSH2 0x1E4 JUMPI DUP2 DUP8 SWAP3 PUSH1 0x24 DUP11 SWAP4 ADD DUP4 DUP8 ADD CALLDATACOPY DUP5 ADD ADD MSTORE PUSH1 0x1 PUSH1 0x1 PUSH1 0xA0 SHL SUB PUSH1 0x24 CALLDATALOAD DUP2 DUP2 AND SWAP6 SWAP2 SWAP3 SWAP1 DUP7 SWAP1 SUB PUSH2 0x1E4 JUMPI PUSH1 0x44 CALLDATALOAD SWAP3 DUP1 DUP9 SLOAD AND CALLER SUB PUSH2 0x1F9 JUMPI DUP7 PUSH1 0x44 DUP11 SWAP3 PUSH1 0x1 SLOAD AND SWAP4 DUP11 DUP7 MLOAD SWAP6 DUP7 SWAP5 DUP6 SWAP4 PUSH4 0xA9059CBB PUSH1 0xE0 SHL DUP6 MSTORE DUP5 ADD MSTORE DUP9 PUSH1 0x24 DUP5 ADD MSTORE GAS CALL DUP1 ISZERO PUSH2 0x1EF JUMPI PUSH2 0x1B4 JUMPI JUMPDEST POP DUP1 MLOAD SWAP5 PUSH1 0x60 DUP7 MSTORE DUP4 MLOAD SWAP4 DUP5 PUSH1 0x60 DUP9 ADD MSTORE DUP8 JUMPDEST DUP6 DUP2 LT PUSH2 0x1A0 JUMPI POP POP SWAP3 PUSH1 0x80 SWAP5 SWAP3 PUSH1 0x1F SWAP3 DUP8 SWAP6 DUP10 SWAP11 PUSH32 0x18B0B996C3433EAEF697548A8B2364643B72473B892D0E9FC185A052119D38B8 SWAP11 DUP10 DUP7 DUP11 ADD ADD MSTORE DUP8 ADD MSTORE DUP6 ADD MSTORE ADD AND DUP2 ADD SUB ADD SWAP1 LOG1 DUP1 RETURN JUMPDEST DUP2 DUP2 ADD DUP11 ADD MLOAD DUP9 DUP3 ADD PUSH1 0x80 ADD MSTORE DUP10 ADD PUSH2 0x152 JUMP JUMPDEST DUP8 DUP2 DUP2 RETURNDATASIZE DUP4 GT PUSH2 0x1E8 JUMPI JUMPDEST PUSH2 0x1C9 DUP2 DUP4 PUSH2 0x264 JUMP JUMPDEST DUP2 ADD SUB SLT PUSH2 0x1E4 JUMPI MLOAD DUP1 ISZERO ISZERO SUB PUSH2 0x1E0 JUMPI DUP8 PUSH2 0x13F JUMP JUMPDEST DUP6 DUP1 REVERT JUMPDEST DUP7 DUP1 REVERT JUMPDEST POP RETURNDATASIZE PUSH2 0x1BF JUMP JUMPDEST DUP3 MLOAD RETURNDATASIZE DUP10 DUP3 RETURNDATACOPY RETURNDATASIZE SWAP1 REVERT JUMPDEST POP DUP8 PUSH1 0x64 SWAP3 MLOAD SWAP2 PUSH3 0x461BCD PUSH1 0xE5 SHL DUP4 MSTORE DUP3 ADD MSTORE PUSH1 0xA PUSH1 0x24 DUP3 ADD MSTORE PUSH10 0x27B7363C9020B236B4B7 PUSH1 0xB1 SHL PUSH1 0x44 DUP3 ADD MSTORE REVERT JUMPDEST PUSH4 0x4E487B71 PUSH1 0xE0 SHL DUP5 MSTORE PUSH1 0x41 SWAP1 MSTORE PUSH1 0x24 DUP4 REVERT JUMPDEST DUP4 DUP1 REVERT JUMPDEST DUP5 SWAP1 CALLVALUE PUSH2 0x6C JUMPI DUP2 PUSH1 0x3 NOT CALLDATASIZE ADD SLT PUSH2 0x6C JUMPI PUSH1 0x1 SLOAD PUSH1 0x1 PUSH1 0x1 PUSH1 0xA0 SHL SUB AND DUP2 MSTORE PUSH1 0x20 SWAP1 RETURN JUMPDEST SWAP1 PUSH1 0x1F DUP1 NOT SWAP2 ADD AND DUP2 ADD SWAP1 DUP2 LT PUSH8 0xFFFFFFFFFFFFFFFF DUP3 GT OR PUSH2 0x286 JUMPI PUSH1 0x40 MSTORE JUMP JUMPDEST PUSH4 0x4E487B71 PUSH1 0xE0 SHL PUSH1 0x0 MSTORE PUSH1 0x41 PUSH1 0x4 MSTORE PUSH1 0x24 PUSH1 0x0 REVERT INVALID LOG2 PUSH5 0x6970667358 0x22 SLT KECCAK256 CODESIZE 0xC3 0xC9 0xE1 ORIGIN 0xB2 SWAP15 PUSH22 0x5D7915C9509812150D8D12BDB4FE77D941DA860BF9D0 PUSH4 0x4F64736F PUSH13 0x63430008130033000000000000 "},"methodIdentifiers":{"admin()":"f851a440","paySalary(string,address,uint256)":"ead2c18f","paymentToken()":"3013ce29"}}}}}