{"contracts/PayrollManagement.sol":{"PayrollManagement":{"abi":[{"anonymous":false,"inputs":[{"indexed":true,"internalType":"address","name":"employee","type":"address"},{"indexed":false,"internalType":"uint256","name":"amount","type":"uint256"},{"indexed":false,"internalType":"string","name":"period","type":"string"},{"indexed":false,"internalType":"uint256","name":"timestamp","type":"uint256"}],"name":"PaymentExecuted","type":"event"},{"inputs":[],"name":"deposit","outputs":[],"stateMutability":"payable","type":"function"},{"inputs":[],"name":"getBalance","outputs":[{"internalType":"uint256","name":"","type":"uint256"}],"stateMutability":"view","type":"function"},{"inputs":[{"internalType":"address","name":"employee","type":"address"},{"internalType":"string","name":"period","type":"string"}],"name":"isPaid","outputs":[{"internalType":"bool","name":"","type":"bool"}],"stateMutability":"view","type":"function"},{"inputs":[{"internalType":"address","name":"","type":"address"},{"internalType":"string","name":"","type":"string"}],"name":"paidRecords","outputs":[{"internalType":"bool","name":"","type":"bool"}],"stateMutability":"view","type":"function"},{"inputs":[{"internalType":"address","name":"employee","type":"address"},{"internalType":"uint256","name":"amount","type":"uint256"},{"internalType":"string","name":"period","type":"string"}],"name":"paySalary","outputs":[],"stateMutability":"payable","type":"function"},{"stateMutability":"payable","type":"receive"}],"evm":{"bytecode":{"linkReferences":{},"object":"6080806040523461001b57600160005561047290816100218239f35b600080fdfe608060409080825260049182361015610023575b505050361561002157600080fd5b005b600092833560e01c92836312065fe01461033e5750826327b277e014610324578263581b755d146100d557508163ba61232b1461007d575063d0e30db01461006c578080610013565b8060031936011261007a5780f35b80fd5b9050346100d15760ff6100bd6020809484610097366103d6565b6001600160a01b0390911683526001845291208551825190948593829085908701610419565b820190815203019020541690519015158152f35b5080fd5b90915060603660031901126103205780356001600160a01b038116919082900361031c5760243560443567ffffffffffffffff81116103185761011b9036908401610358565b9160028654146102d55760028655838652602092600184528587209160ff875186818551968287019761014f81848b610419565b820190815203019020541661029257831561025857834710610215575086808080868982f11561020b579084956101f2608094937f0388abfa25bc6ffe0f7bc09eb3647e7bfb159fc71ca205f8b5ab8b16b0c7a01d978a5260018752828a20878451809284516101c081848b610419565b820190815203019020600160ff1982541617905560608351978896875286015251809381606087015286860190610419565b4290830152601f01601f19168101030190a26001815580f35b85513d88823e3d90fd5b865162461bcd60e51b8152908101859052601760248201527f536f20647520686f7020646f6e67206b686f6e672064750000000000000000006044820152606490fd5b865162461bcd60e51b81529081018590526014602482015273536f207469656e206b686f6e6720686f70206c6560601b6044820152606490fd5b865162461bcd60e51b8152908101859052601860248201527f4461207468616e6820746f616e2063686f206b79206e617900000000000000006044820152606490fd5b606490602086519162461bcd60e51b8352820152601f60248201527f5265656e7472616e637947756172643a207265656e7472616e742063616c6c006044820152fd5b8580fd5b8380fd5b8280fd5b8382346100d15760ff6100bd6020809484610097366103d6565b8490346100d157816003193601126100d157602090478152f35b81601f820112156103bb5780359067ffffffffffffffff928383116103c05760405193601f8401601f19908116603f01168501908111858210176103c057604052828452602083830101116103bb57816000926020809301838601378301015290565b600080fd5b634e487b7160e01b600052604160045260246000fd5b9060406003198301126103bb576004356001600160a01b03811681036103bb57916024359067ffffffffffffffff82116103bb5761041691600401610358565b90565b60005b83811061042c5750506000910152565b818101518382015260200161041c56fea26469706673582212204d6a1635c693615a4c7920bd9d3226919d9f7bb44ba6a7fd0e79fa2270fbf97464736f6c63430008130033","opcodes":"PUSH1 0x80 DUP1 PUSH1 0x40 MSTORE CALLVALUE PUSH2 0x1B JUMPI PUSH1 0x1 PUSH1 0x0 SSTORE PUSH2 0x472 SWAP1 DUP2 PUSH2 0x21 DUP3 CODECOPY RETURN JUMPDEST PUSH1 0x0 DUP1 REVERT INVALID PUSH1 0x80 PUSH1 0x40 SWAP1 DUP1 DUP3 MSTORE PUSH1 0x4 SWAP2 DUP3 CALLDATASIZE LT ISZERO PUSH2 0x23 JUMPI JUMPDEST POP POP POP CALLDATASIZE ISZERO PUSH2 0x21 JUMPI PUSH1 0x0 DUP1 REVERT JUMPDEST STOP JUMPDEST PUSH1 0x0 SWAP3 DUP4 CALLDATALOAD PUSH1 0xE0 SHR SWAP3 DUP4 PUSH4 0x12065FE0 EQ PUSH2 0x33E JUMPI POP DUP3 PUSH4 0x27B277E0 EQ PUSH2 0x324 JUMPI DUP3 PUSH4 0x581B755D EQ PUSH2 0xD5 JUMPI POP DUP2 PUSH4 0xBA61232B EQ PUSH2 0x7D JUMPI POP PUSH4 0xD0E30DB0 EQ PUSH2 0x6C JUMPI DUP1 DUP1 PUSH2 0x13 JUMP JUMPDEST DUP1 PUSH1 0x3 NOT CALLDATASIZE ADD SLT PUSH2 0x7A JUMPI DUP1 RETURN JUMPDEST DUP1 REVERT JUMPDEST SWAP1 POP CALLVALUE PUSH2 0xD1 JUMPI PUSH1 0xFF PUSH2 0xBD PUSH1 0x20 DUP1 SWAP5 DUP5 PUSH2 0x97 CALLDATASIZE PUSH2 0x3D6 JUMP JUMPDEST PUSH1 0x1 PUSH1 0x1 PUSH1 0xA0 SHL SUB SWAP1 SWAP2 AND DUP4 MSTORE PUSH1 0x1 DUP5 MSTORE SWAP2 KECCAK256 DUP6 MLOAD DUP3 MLOAD SWAP1 SWAP5 DUP6 SWAP4 DUP3 SWAP1 DUP6 SWAP1 DUP8 ADD PUSH2 0x419 JUMP JUMPDEST DUP3 ADD SWAP1 DUP2 MSTORE SUB ADD SWAP1 KECCAK256 SLOAD AND SWAP1 MLOAD SWAP1 ISZERO ISZERO DUP2 MSTORE RETURN JUMPDEST POP DUP1 REVERT JUMPDEST SWAP1 SWAP2 POP PUSH1 0x60 CALLDATASIZE PUSH1 0x3 NOT ADD SLT PUSH2 0x320 JUMPI DUP1 CALLDATALOAD PUSH1 0x1 PUSH1 0x1 PUSH1 0xA0 SHL SUB DUP2 AND SWAP2 SWAP1 DUP3 SWAP1 SUB PUSH2 0x31C JUMPI PUSH1 0x24 CALLDATALOAD PUSH1 0x44 CALLDATALOAD PUSH8 0xFFFFFFFFFFFFFFFF DUP2 GT PUSH2 0x318 JUMPI PUSH2 0x11B SWAP1 CALLDATASIZE SWAP1 DUP5 ADD PUSH2 0x358 JUMP JUMPDEST SWAP2 PUSH1 0x2 DUP7 SLOAD EQ PUSH2 0x2D5 JUMPI PUSH1 0x2 DUP7 SSTORE DUP4 DUP7 MSTORE PUSH1 0x20 SWAP3 PUSH1 0x1 DUP5 MSTORE DUP6 DUP8 KECCAK256 SWAP2 PUSH1 0xFF DUP8 MLOAD DUP7 DUP2 DUP6 MLOAD SWAP7 DUP3 DUP8 ADD SWAP8 PUSH2 0x14F DUP2 DUP5 DUP12 PUSH2 0x419 JUMP JUMPDEST DUP3 ADD SWAP1 DUP2 MSTORE SUB ADD SWAP1 KECCAK256 SLOAD AND PUSH2 0x292 JUMPI DUP4 ISZERO PUSH2 0x258 JUMPI DUP4 SELFBALANCE LT PUSH2 0x215 JUMPI POP DUP7 DUP1 DUP1 DUP1 DUP7 DUP10 DUP3 CALL ISZERO PUSH2 0x20B JUMPI SWAP1 DUP5 SWAP6 PUSH2 0x1F2 PUSH1 0x80 SWAP5 SWAP4 PUSH32 0x388ABFA25BC6FFE0F7BC09EB3647E7BFB159FC71CA205F8B5AB8B16B0C7A01D SWAP8 DUP11 MSTORE PUSH1 0x1 DUP8 MSTORE DUP3 DUP11 KECCAK256 DUP8 DUP5 MLOAD DUP1 SWAP3 DUP5 MLOAD PUSH2 0x1C0 DUP2 DUP5 DUP12 PUSH2 0x419 JUMP JUMPDEST DUP3 ADD SWAP1 DUP2 MSTORE SUB ADD SWAP1 KECCAK256 PUSH1 0x1 PUSH1 0xFF NOT DUP3 SLOAD AND OR SWAP1 SSTORE PUSH1 0x60 DUP4 MLOAD SWAP8 DUP9 SWAP7 DUP8 MSTORE DUP7 ADD MSTORE MLOAD DUP1 SWAP4 DUP2 PUSH1 0x60 DUP8 ADD MSTORE DUP7 DUP7 ADD SWAP1 PUSH2 0x419 JUMP JUMPDEST TIMESTAMP SWAP1 DUP4 ADD MSTORE PUSH1 0x1F ADD PUSH1 0x1F NOT AND DUP2 ADD SUB ADD SWAP1 LOG2 PUSH1 0x1 DUP2 SSTORE DUP1 RETURN JUMPDEST DUP6 MLOAD RETURNDATASIZE DUP9 DUP3 RETURNDATACOPY RETURNDATASIZE SWAP1 REVERT JUMPDEST DUP7 MLOAD PUSH3 0x461BCD PUSH1 0xE5 SHL DUP2 MSTORE SWAP1 DUP2 ADD DUP6 SWAP1 MSTORE PUSH1 0x17 PUSH1 0x24 DUP3 ADD MSTORE PUSH32 0x536F20647520686F7020646F6E67206B686F6E67206475000000000000000000 PUSH1 0x44 DUP3 ADD MSTORE PUSH1 0x64 SWAP1 REVERT JUMPDEST DUP7 MLOAD PUSH3 0x461BCD PUSH1 0xE5 SHL DUP2 MSTORE SWAP1 DUP2 ADD DUP6 SWAP1 MSTORE PUSH1 0x14 PUSH1 0x24 DUP3 ADD MSTORE PUSH20 0x536F207469656E206B686F6E6720686F70206C65 PUSH1 0x60 SHL PUSH1 0x44 DUP3 ADD MSTORE PUSH1 0x64 SWAP1 REVERT JUMPDEST DUP7 MLOAD PUSH3 0x461BCD PUSH1 0xE5 SHL DUP2 MSTORE SWAP1 DUP2 ADD DUP6 SWAP1 MSTORE PUSH1 0x18 PUSH1 0x24 DUP3 ADD MSTORE PUSH32 0x4461207468616E6820746F616E2063686F206B79206E61790000000000000000 PUSH1 0x44 DUP3 ADD MSTORE PUSH1 0x64 SWAP1 REVERT JUMPDEST PUSH1 0x64 SWAP1 PUSH1 0x20 DUP7 MLOAD SWAP2 PUSH3 0x461BCD PUSH1 0xE5 SHL DUP4 MSTORE DUP3 ADD MSTORE PUSH1 0x1F PUSH1 0x24 DUP3 ADD MSTORE PUSH32 0x5265656E7472616E637947756172643A207265656E7472616E742063616C6C00 PUSH1 0x44 DUP3 ADD MSTORE REVERT JUMPDEST DUP6 DUP1 REVERT JUMPDEST DUP4 DUP1 REVERT JUMPDEST DUP3 DUP1 REVERT JUMPDEST DUP4 DUP3 CALLVALUE PUSH2 0xD1 JUMPI PUSH1 0xFF PUSH2 0xBD PUSH1 0x20 DUP1 SWAP5 DUP5 PUSH2 0x97 CALLDATASIZE PUSH2 0x3D6 JUMP JUMPDEST DUP5 SWAP1 CALLVALUE PUSH2 0xD1 JUMPI DUP2 PUSH1 0x3 NOT CALLDATASIZE ADD SLT PUSH2 0xD1 JUMPI PUSH1 0x20 SWAP1 SELFBALANCE DUP2 MSTORE RETURN JUMPDEST DUP2 PUSH1 0x1F DUP3 ADD SLT ISZERO PUSH2 0x3BB JUMPI DUP1 CALLDATALOAD SWAP1 PUSH8 0xFFFFFFFFFFFFFFFF SWAP3 DUP4 DUP4 GT PUSH2 0x3C0 JUMPI PUSH1 0x40 MLOAD SWAP4 PUSH1 0x1F DUP5 ADD PUSH1 0x1F NOT SWAP1 DUP2 AND PUSH1 0x3F ADD AND DUP6 ADD SWAP1 DUP2 GT DUP6 DUP3 LT OR PUSH2 0x3C0 JUMPI PUSH1 0x40 MSTORE DUP3 DUP5 MSTORE PUSH1 0x20 DUP4 DUP4 ADD ADD GT PUSH2 0x3BB JUMPI DUP2 PUSH1 0x0 SWAP3 PUSH1 0x20 DUP1 SWAP4 ADD DUP4 DUP7 ADD CALLDATACOPY DUP4 ADD ADD MSTORE SWAP1 JUMP JUMPDEST PUSH1 0x0 DUP1 REVERT JUMPDEST PUSH4 0x4E487B71 PUSH1 0xE0 SHL PUSH1 0x0 MSTORE PUSH1 0x41 PUSH1 0x4 MSTORE PUSH1 0x24 PUSH1 0x0 REVERT JUMPDEST SWAP1 PUSH1 0x40 PUSH1 0x3 NOT DUP4 ADD SLT PUSH2 0x3BB JUMPI PUSH1 0x4 CALLDATALOAD PUSH1 0x1 PUSH1 0x1 PUSH1 0xA0 SHL SUB DUP2 AND DUP2 SUB PUSH2 0x3BB JUMPI SWAP2 PUSH1 0x24 CALLDATALOAD SWAP1 PUSH8 0xFFFFFFFFFFFFFFFF DUP3 GT PUSH2 0x3BB JUMPI PUSH2 0x416 SWAP2 PUSH1 0x4 ADD PUSH2 0x358 JUMP JUMPDEST SWAP1 JUMP JUMPDEST PUSH1 0x0 JUMPDEST DUP4 DUP2 LT PUSH2 0x42C JUMPI POP POP PUSH1 0x0 SWAP2 ADD MSTORE JUMP JUMPDEST DUP2 DUP2 ADD MLOAD DUP4 DUP3 ADD MSTORE PUSH1 0x20 ADD PUSH2 0x41C JUMP INVALID LOG2 PUSH5 0x6970667358 0x22 SLT KECCAK256 0x4D PUSH11 0x1635C693615A4C7920BD9D ORIGIN 0x26 SWAP2 SWAP14 SWAP16 PUSH28 0xB44BA6A7FD0E79FA2270FBF97464736F6C6343000813003300000000 "},"methodIdentifiers":{"deposit()":"d0e30db0","getBalance()":"12065fe0","isPaid(address,string)":"ba61232b","paidRecords(address,string)":"27b277e0","paySalary(address,uint256,string)":"581b755d"}}}}}