{
  "_format": "hh-sol-artifact-1",
  "contractName": "HRPayroll",
  "sourceName": "contracts/HRPayroll.sol",
  "abi": [
    {
      "inputs": [
        {
          "internalType": "address",
          "name": "_tokenAddress",
          "type": "address"
        }
      ],
      "stateMutability": "nonpayable",
      "type": "constructor"
    },
    {
      "anonymous": false,
      "inputs": [
        {
          "indexed": false,
          "internalType": "string",
          "name": "employeeDid",
          "type": "string"
        },
        {
          "indexed": false,
          "internalType": "address",
          "name": "walletAddress",
          "type": "address"
        },
        {
          "indexed": false,
          "internalType": "uint256",
          "name": "amount",
          "type": "uint256"
        }
      ],
      "name": "SalaryPaid",
      "type": "event"
    },
    {
      "inputs": [],
      "name": "admin",
      "outputs": [
        {
          "internalType": "address",
          "name": "",
          "type": "address"
        }
      ],
      "stateMutability": "view",
      "type": "function"
    },
    {
      "inputs": [
        {
          "internalType": "string",
          "name": "_employeeDid",
          "type": "string"
        },
        {
          "internalType": "address",
          "name": "_employeeWallet",
          "type": "address"
        },
        {
          "internalType": "uint256",
          "name": "_amount",
          "type": "uint256"
        }
      ],
      "name": "paySalary",
      "outputs": [],
      "stateMutability": "nonpayable",
      "type": "function"
    },
    {
      "inputs": [],
      "name": "paymentToken",
      "outputs": [
        {
          "internalType": "contract IERC20",
          "name": "",
          "type": "address"
        }
      ],
      "stateMutability": "view",
      "type": "function"
    }
  ],
  "bytecode": "0x60803461007a57601f61036838819003918201601f19168301916001600160401b0383118484101761007f5780849260209460405283398101031261007a57516001600160a01b0381169081900361007a5760018060a01b03193381600054161760005560015416176001556040516102d290816100968239f35b600080fd5b634e487b7160e01b600052604160045260246000fdfe608060408181526004918236101561001657600080fd5b600092833560e01c9182633013ce291461023f57508163ead2c18f14610070575063f851a4401461004657600080fd5b3461006c578160031936011261006c57905490516001600160a01b039091168152602090f35b5080fd5b83833461006c57606036600319011261006c57823567ffffffffffffffff9384821161023b573660238301121561023b578181013594851161022857825190602095601f19936100c78886601f8501160185610264565b81845236602483830101116101e45781879260248a930183870137840101526001600160a01b03602435818116959192908690036101e457604435928088541633036101f9578660448a9260015416938a8651958694859363a9059cbb60e01b85528401528860248401525af180156101ef576101b4575b5080519460608652835193846060880152875b8581106101a05750509260809492601f928795899a7f18b0b996c3433eaef697548a8b2364643b72473b892d0e9fc185a052119d38b89a89868a01015287015285015201168101030190a180f35b8181018a0151888201608001528901610152565b8781813d83116101e8575b6101c98183610264565b810103126101e45751801515036101e0578761013f565b8580fd5b8680fd5b503d6101bf565b82513d89823e3d90fd5b5087606492519162461bcd60e51b8352820152600a60248201526927b7363c9020b236b4b760b11b6044820152fd5b634e487b7160e01b845260419052602483fd5b8380fd5b84903461006c578160031936011261006c576001546001600160a01b03168152602090f35b90601f8019910116810190811067ffffffffffffffff82111761028657604052565b634e487b7160e01b600052604160045260246000fdfea264697066735822122038c3c9e132b29e755d7915c9509812150d8d12bdb4fe77d941da860bf9d0634f64736f6c63430008130033",
  "linkReferences": {},
  "deployedLinkReferences": {}
}