{
  "_format": "hh-sol-artifact-1",
  "contractName": "VotingManagement",
  "sourceName": "contracts/VotingManagement.sol",
  "abi": [
    {
      "inputs": [],
      "stateMutability": "nonpayable",
      "type": "constructor"
    },
    {
      "anonymous": false,
      "inputs": [
        {
          "indexed": true,
          "internalType": "string",
          "name": "departmentId",
          "type": "string"
        },
        {
          "indexed": true,
          "internalType": "uint256",
          "name": "periodId",
          "type": "uint256"
        },
        {
          "indexed": true,
          "internalType": "string",
          "name": "employeeDid",
          "type": "string"
        },
        {
          "indexed": false,
          "internalType": "address",
          "name": "walletAddress",
          "type": "address"
        }
      ],
      "name": "CandidateRegistered",
      "type": "event"
    },
    {
      "anonymous": false,
      "inputs": [
        {
          "indexed": true,
          "internalType": "address",
          "name": "previousOwner",
          "type": "address"
        },
        {
          "indexed": true,
          "internalType": "address",
          "name": "newOwner",
          "type": "address"
        }
      ],
      "name": "OwnershipTransferred",
      "type": "event"
    },
    {
      "anonymous": false,
      "inputs": [
        {
          "indexed": true,
          "internalType": "string",
          "name": "departmentId",
          "type": "string"
        },
        {
          "indexed": true,
          "internalType": "uint256",
          "name": "periodId",
          "type": "uint256"
        },
        {
          "indexed": true,
          "internalType": "address",
          "name": "voter",
          "type": "address"
        },
        {
          "indexed": false,
          "internalType": "string",
          "name": "candidateDid",
          "type": "string"
        }
      ],
      "name": "VoteCast",
      "type": "event"
    },
    {
      "anonymous": false,
      "inputs": [
        {
          "indexed": true,
          "internalType": "string",
          "name": "departmentId",
          "type": "string"
        },
        {
          "indexed": true,
          "internalType": "uint256",
          "name": "periodId",
          "type": "uint256"
        },
        {
          "indexed": false,
          "internalType": "uint256",
          "name": "startTime",
          "type": "uint256"
        },
        {
          "indexed": false,
          "internalType": "uint256",
          "name": "endTime",
          "type": "uint256"
        }
      ],
      "name": "VotingPeriodCreated",
      "type": "event"
    },
    {
      "anonymous": false,
      "inputs": [
        {
          "indexed": true,
          "internalType": "string",
          "name": "departmentId",
          "type": "string"
        },
        {
          "indexed": true,
          "internalType": "uint256",
          "name": "periodId",
          "type": "uint256"
        },
        {
          "indexed": false,
          "internalType": "string",
          "name": "winnerDid",
          "type": "string"
        },
        {
          "indexed": false,
          "internalType": "uint256",
          "name": "winnerVotes",
          "type": "uint256"
        }
      ],
      "name": "VotingPeriodEnded",
      "type": "event"
    },
    {
      "inputs": [
        {
          "internalType": "string",
          "name": "",
          "type": "string"
        },
        {
          "internalType": "string",
          "name": "",
          "type": "string"
        },
        {
          "internalType": "uint256",
          "name": "",
          "type": "uint256"
        }
      ],
      "name": "candidateWallets",
      "outputs": [
        {
          "internalType": "address",
          "name": "",
          "type": "address"
        }
      ],
      "stateMutability": "view",
      "type": "function"
    },
    {
      "inputs": [
        {
          "internalType": "string",
          "name": "departmentId",
          "type": "string"
        },
        {
          "internalType": "uint256",
          "name": "durationInDays",
          "type": "uint256"
        }
      ],
      "name": "createVotingPeriod",
      "outputs": [],
      "stateMutability": "nonpayable",
      "type": "function"
    },
    {
      "inputs": [
        {
          "internalType": "string",
          "name": "",
          "type": "string"
        }
      ],
      "name": "currentPeriodId",
      "outputs": [
        {
          "internalType": "uint256",
          "name": "",
          "type": "uint256"
        }
      ],
      "stateMutability": "view",
      "type": "function"
    },
    {
      "inputs": [
        {
          "internalType": "string",
          "name": "departmentId",
          "type": "string"
        },
        {
          "internalType": "uint256",
          "name": "periodId",
          "type": "uint256"
        }
      ],
      "name": "endVotingPeriod",
      "outputs": [],
      "stateMutability": "nonpayable",
      "type": "function"
    },
    {
      "inputs": [
        {
          "internalType": "string",
          "name": "employeeDid",
          "type": "string"
        },
        {
          "internalType": "string",
          "name": "departmentId",
          "type": "string"
        },
        {
          "internalType": "uint256",
          "name": "periodId",
          "type": "uint256"
        }
      ],
      "name": "getCandidateWallet",
      "outputs": [
        {
          "internalType": "address",
          "name": "",
          "type": "address"
        }
      ],
      "stateMutability": "view",
      "type": "function"
    },
    {
      "inputs": [
        {
          "internalType": "string",
          "name": "departmentId",
          "type": "string"
        },
        {
          "internalType": "uint256",
          "name": "periodId",
          "type": "uint256"
        }
      ],
      "name": "getCandidates",
      "outputs": [
        {
          "internalType": "string[]",
          "name": "",
          "type": "string[]"
        }
      ],
      "stateMutability": "view",
      "type": "function"
    },
    {
      "inputs": [
        {
          "internalType": "string",
          "name": "departmentId",
          "type": "string"
        },
        {
          "internalType": "uint256",
          "name": "periodId",
          "type": "uint256"
        }
      ],
      "name": "getTopCandidate",
      "outputs": [
        {
          "internalType": "string",
          "name": "employeeDid",
          "type": "string"
        },
        {
          "internalType": "uint256",
          "name": "votes",
          "type": "uint256"
        }
      ],
      "stateMutability": "view",
      "type": "function"
    },
    {
      "inputs": [
        {
          "internalType": "string",
          "name": "employeeDid",
          "type": "string"
        },
        {
          "internalType": "string",
          "name": "departmentId",
          "type": "string"
        },
        {
          "internalType": "uint256",
          "name": "periodId",
          "type": "uint256"
        }
      ],
      "name": "getVoteCount",
      "outputs": [
        {
          "internalType": "uint256",
          "name": "",
          "type": "uint256"
        }
      ],
      "stateMutability": "view",
      "type": "function"
    },
    {
      "inputs": [
        {
          "internalType": "address",
          "name": "voter",
          "type": "address"
        },
        {
          "internalType": "string",
          "name": "departmentId",
          "type": "string"
        },
        {
          "internalType": "uint256",
          "name": "periodId",
          "type": "uint256"
        }
      ],
      "name": "getVoterChoice",
      "outputs": [
        {
          "internalType": "string",
          "name": "",
          "type": "string"
        }
      ],
      "stateMutability": "view",
      "type": "function"
    },
    {
      "inputs": [
        {
          "internalType": "string",
          "name": "departmentId",
          "type": "string"
        },
        {
          "internalType": "uint256",
          "name": "periodId",
          "type": "uint256"
        }
      ],
      "name": "getVotingPeriod",
      "outputs": [
        {
          "internalType": "uint256",
          "name": "startTime",
          "type": "uint256"
        },
        {
          "internalType": "uint256",
          "name": "endTime",
          "type": "uint256"
        },
        {
          "internalType": "bool",
          "name": "isActive",
          "type": "bool"
        },
        {
          "internalType": "bool",
          "name": "isEnded",
          "type": "bool"
        },
        {
          "internalType": "uint256",
          "name": "totalCandidates",
          "type": "uint256"
        },
        {
          "internalType": "uint256",
          "name": "totalVotes",
          "type": "uint256"
        }
      ],
      "stateMutability": "view",
      "type": "function"
    },
    {
      "inputs": [
        {
          "internalType": "address",
          "name": "voter",
          "type": "address"
        },
        {
          "internalType": "string",
          "name": "departmentId",
          "type": "string"
        },
        {
          "internalType": "uint256",
          "name": "periodId",
          "type": "uint256"
        }
      ],
      "name": "hasVoted",
      "outputs": [
        {
          "internalType": "bool",
          "name": "",
          "type": "bool"
        }
      ],
      "stateMutability": "view",
      "type": "function"
    },
    {
      "inputs": [],
      "name": "owner",
      "outputs": [
        {
          "internalType": "address",
          "name": "",
          "type": "address"
        }
      ],
      "stateMutability": "view",
      "type": "function"
    },
    {
      "inputs": [
        {
          "internalType": "string",
          "name": "departmentId",
          "type": "string"
        },
        {
          "internalType": "uint256",
          "name": "periodId",
          "type": "uint256"
        },
        {
          "internalType": "string",
          "name": "employeeDid",
          "type": "string"
        },
        {
          "internalType": "address",
          "name": "walletAddress",
          "type": "address"
        }
      ],
      "name": "registerCandidate",
      "outputs": [],
      "stateMutability": "nonpayable",
      "type": "function"
    },
    {
      "inputs": [],
      "name": "renounceOwnership",
      "outputs": [],
      "stateMutability": "nonpayable",
      "type": "function"
    },
    {
      "inputs": [
        {
          "internalType": "address",
          "name": "newOwner",
          "type": "address"
        }
      ],
      "name": "transferOwnership",
      "outputs": [],
      "stateMutability": "nonpayable",
      "type": "function"
    },
    {
      "inputs": [
        {
          "internalType": "string",
          "name": "departmentId",
          "type": "string"
        },
        {
          "internalType": "uint256",
          "name": "periodId",
          "type": "uint256"
        },
        {
          "internalType": "string",
          "name": "candidateDid",
          "type": "string"
        }
      ],
      "name": "vote",
      "outputs": [],
      "stateMutability": "nonpayable",
      "type": "function"
    },
    {
      "inputs": [
        {
          "internalType": "string",
          "name": "",
          "type": "string"
        },
        {
          "internalType": "uint256",
          "name": "",
          "type": "uint256"
        }
      ],
      "name": "votingPeriods",
      "outputs": [
        {
          "internalType": "string",
          "name": "departmentId",
          "type": "string"
        },
        {
          "internalType": "uint256",
          "name": "periodId",
          "type": "uint256"
        },
        {
          "internalType": "uint256",
          "name": "startTime",
          "type": "uint256"
        },
        {
          "internalType": "uint256",
          "name": "endTime",
          "type": "uint256"
        },
        {
          "internalType": "bool",
          "name": "isActive",
          "type": "bool"
        },
        {
          "internalType": "bool",
          "name": "isEnded",
          "type": "bool"
        }
      ],
      "stateMutability": "view",
      "type": "function"
    }
  ],
  "bytecode": "0x6080806040523461005f5760008054336001600160a01b0319821681178355916001600160a01b03909116907f8be0079c531659141344cd1fd0a4f28419497f9722a3daafe3b4186f6b6457e09080a3600180556117c490816100658239f35b600080fdfe60406080815260048036101561001457600080fd5b600091823560e01c8063122c447a14610f29578063215ef93b14610ef15780633304026414610d0e5780633f89dcf214610bcd5780635f68145c14610b94578063715018a614610b3a57806377b18d2614610adf5780638712d38b146106af5780638c79924714610a7e5780638da5cb5b14610a56578063a0c450cb14610751578063b618e3a41461070a578063bf0e5f41146106af578063cdb67306146105a3578063cf9582e3146104fa578063d47ec969146101a75763f2fde38b146100db57600080fd5b346101a35760203660031901126101a3576001600160a01b0382358181169391929084900361019f5761010c61138d565b831561014d57505082546001600160a01b0319811683178455167f8be0079c531659141344cd1fd0a4f28419497f9722a3daafe3b4186f6b6457e08380a380f35b906020608492519162461bcd60e51b8352820152602660248201527f4f776e61626c653a206e6577206f776e657220697320746865207a65726f206160448201526564647265737360d01b6064820152fd5b8480fd5b8280fd5b50346101a35760603660031901126101a35767ffffffffffffffff90823582811161019f576101d99036908501611110565b926024938435936044359081116104f6576101f79036908401611110565b91610200611659565b835195825160209788818187019361021981838761119e565b81016003815203019020878a5288528589208381015460ff8116156104b4576102689161024e60ff60039360081c16156115d0565b61025e6002820154421015611584565b01544211156115d0565b845115610472578761028491875180938192885192839161119e565b81016003815203019020868952875284882060078101338a5280895260ff878b20541661044057898a8a600585018054928b838c01935b8583106103ec575b505050505050156103aa57906009916102df6006830188611297565b6102e9815461161c565b9055338b528952868a20600160ff1982541617905560088101895261031086888c20611408565b0190815492600160401b84101561039957505061038f9261035c8361037d9360017f1a88a8290f7368f7d3d44326bc11691659008403bab86cc424dc1ea4232a23ae989601815561162b565b81546001600160a01b0360039290921b91821b19163390911b179055611518565b935191829187835233978301906111c1565b0390a46001805580f35b634e487b7160e01b8a526041905288fd5b865162461bcd60e51b81528085018a90526018818501527f43616e64696461746520646f6573206e6f7420657869737400000000000000006044820152606490fd5b610410610409926103fd858761162b565b509051938480926112f7565b03836110ee565b81519101208b5184201461042e576104279061161c565b8b8e6102bb565b50505050506001388080808b8e6102c3565b865162461bcd60e51b81528085018a9052600d818501526c105b1c9958591e481d9bdd1959609a1b6044820152606490fd5b855162461bcd60e51b8152808401899052601d818401527f43616e646964617465204449442063616e6e6f7420626520656d7074790000006044820152606490fd5b875162461bcd60e51b81528086018b9052601b818601527f566f74696e6720706572696f64206973206e6f742061637469766500000000006044820152606490fd5b8680fd5b5090346101a35760ff8261057c94602061052a6105163661116c565b92908186519382858094519384920161119e565b8101600381520301902090825260205220928051936105548561054d81846112f7565b03866110ee565b600181015493600282015490600383015492015492805197889760c0895260c08901906111c1565b95602088015286015260608501528181161515608085015260081c16151560a08301520390f35b509190346106ab576105bf906105b83661116c565b9290611271565b91835260209182526005848420019182549167ffffffffffffffff8311610698575092908451906105f5858260051b01836110ee565b8082528482018094845285842084915b83831061066657505050508451938085019181865251809252858501958260051b8601019392955b82871061063a5785850386f35b909192938280610656600193603f198a820301865288516111c1565b960192019601959291909261062d565b60018881928b9a97989a516106868161067f81896112f7565b03826110ee565b81520192019201919096949396610605565b634e487b7160e01b855260419052602484fd5b5080fd5b8382346106ab576020916106e06106f0846106c9366111e6565b94918388949294519382858094519384920161119e565b8101600581520301902090611297565b90825283528190205490516001600160a01b039091168152f35b8382346106ab5760ff8160209361072b61072336611231565b919290611271565b90835286528282206001600160a01b039091168252600701855220549151911615158152f35b5090346101a35760803660031901126101a35767ffffffffffffffff813581811161019f576107839036908401611110565b6024928335926044359081116104f6576107a09036908301611110565b916064356001600160a01b0381169190829003610a5257869585936107c3611659565b610812885184518c602098838a8095818b01956107e181838961119e565b81016003815203019020915282526108028d60019d8e912001541515611538565b8a5180938192885192839161119e565b81016003815203019020878b528552878a20906108356002830154421015611584565b61084560038301544211156115d0565b865115610a105784156109d55760058201805488880194918d805b8d848210610991575b505061094e57600160401b82101561093c579061088a918d8201815561162b565b92909261092c575050926108fe6108ee87610921958e6108dd600661091b986108d68f7f281dfdf7c7bfc1187833246439be7abc6dba6b0cfa83828c5feea14a3d104c8a9f9e9d611408565b018d611297565b558c51809381928d5192839161119e565b8101600581520301902082611297565b888c528552888b2080546001600160a01b03191685179055611518565b94611518565b9551908152a4805580f35b634e487b7160e01b8d528c90528bfd5b634e487b7160e01b8e5260418452828efd5b508a5162461bcd60e51b8152808401899052601c818401527f43616e64696461746520616c72656164792072656769737465726564000000006044820152606490fd5b6109ae61067f916109a2848761162b565b509051928380926112f7565b8b81519101208c518920146109cb576109c69061161c565b610860565b50508c388d610869565b885162461bcd60e51b815290810186905260168184015275496e76616c69642077616c6c6574206164647265737360501b6044820152606490fd5b885162461bcd60e51b8152908101869052601c818401527f456d706c6f796565204449442063616e6e6f7420626520656d707479000000006044820152606490fd5b8780fd5b8382346106ab57816003193601126106ab57905490516001600160a01b039091168152602090f35b508234610adc576020366003190112610adc5782359067ffffffffffffffff8211610adc575060208093610ab8610acb9336908301611110565b908285519483868095519384920161119e565b820190815203019020549051908152f35b80fd5b8382346106ab5780610b2461040992610b3694610afe61072336611231565b9083526020526008838320019060018060a01b03168252602052208251938480926112f7565b519182916020835260208301906111c1565b0390f35b8334610adc5780600319360112610adc57610b5361138d565b80546001600160a01b03198116825581906001600160a01b03167f8be0079c531659141344cd1fd0a4f28419497f9722a3daafe3b4186f6b6457e08280a380f35b8382346106ab57610bc5610bb8600683602095610bb0366111e6565b919590611271565b9082528752200190611297565b549051908152f35b50346101a357610bdc3661116c565b82949194518581809751610bf68160209a8b80960161119e565b8101600381520301902090825284528181209181928260058201805494600684015b868410610c6157505050509460ff9186600260c098015496600382015491015492825197885287015282821615159086015260081c1615156060840152608083015260a0820152f35b90919296610c6f888561162b565b508a87519185908054610c81816112bd565b91600191808316908115610cf35750600114610cc1575b50505084815282900301902054610cb991610cb391906113e5565b9761161c565b929190610c18565b885283882091925087915b838310610ce25750505082018183610cb3610c98565b805486840152918401918101610ccc565b60ff1916875250505080151502830190508183610cb3610c98565b508290346106ab57610d1f3661116c565b91610d2861138d565b805190610d778351926020938185809381890193610d4781838761119e565b810160038152030190208789528252610d676001858a2001541515611538565b835180938192885192839161119e565b810160038152030190208486528252808520958087019081549060ff8260081c16610eb75760038901544210610e74575061ffff19166101001790558051610dbe816110bc565b8581529185938697600581019860068a549201905b828110610e285750505090610e0a7f916da3ff0a4e2efc4be8ff3169229809d8997cd0835396676e54c59da916c56a949392611518565b94610e1e83519484869586528501906111c1565b918301520390a380f35b61067f610e44610e38838e61162b565b508851928380926112f7565b610e4e8382611297565b54898111610e67575b5050610e629061161c565b610dd3565b98509650610e628c610e57565b835162461bcd60e51b8152908101859052601860248201527f506572696f6420686173206e6f7420656e6465642079657400000000000000006044820152606490fd5b835162461bcd60e51b8152908101859052601460248201527314195c9a5bd908185b1c9958591e48195b99195960621b6044820152606490fd5b508234610adc5750610f0b610f053661116c565b906116af565b8251838152928392610f1f918401906111c1565b9060208301520390f35b5090346101a357610f393661116c565b9290610f4361138d565b8051156110795783156110365760016002540193846002556201518080820291820403611023577f2ef6a8f20f3f784b1f30d0f6b82025ded0d2b7a1a2b723089bd96098bb8f5d5d9291856110046020610fa061101395426113e5565b97865190855191838181890194610fb881838861119e565b81016003815203019020858d52835280888d20610fd58882611408565b8660018201554260028201558b600382015501600161ffff19825416179055875180948193885192839161119e565b82019081520301902055611518565b928151904282526020820152a380f35b634e487b7160e01b865260118452602486fd5b815162461bcd60e51b8152602081850152601f60248201527f4475726174696f6e206d7573742062652067726561746572207468616e2030006044820152606490fd5b815162461bcd60e51b8152602081850152601d60248201527f4465706172746d656e742049442063616e6e6f7420626520656d7074790000006044820152606490fd5b6020810190811067ffffffffffffffff8211176110d857604052565b634e487b7160e01b600052604160045260246000fd5b90601f8019910116810190811067ffffffffffffffff8211176110d857604052565b81601f820112156111675780359067ffffffffffffffff82116110d85760405192611145601f8401601f1916602001856110ee565b8284526020838301011161116757816000926020809301838601378301015290565b600080fd5b6040600319820112611167576004359067ffffffffffffffff82116111675761119791600401611110565b9060243590565b60005b8381106111b15750506000910152565b81810151838201526020016111a1565b906020916111da8151809281855285808601910161119e565b601f01601f1916010190565b9060606003198301126111675767ffffffffffffffff600435818111611167578361121391600401611110565b926024359182116111675761122a91600401611110565b9060443590565b906060600319830112611167576004356001600160a01b038116810361116757916024359067ffffffffffffffff82116111675761122a91600401611110565b602061128a91816040519382858094519384920161119e565b8101600381520301902090565b6020906112b192826040519483868095519384920161119e565b82019081520301902090565b90600182811c921680156112ed575b60208310146112d757565b634e487b7160e01b600052602260045260246000fd5b91607f16916112cc565b9060009291805491611308836112bd565b91828252600193848116908160001461136a575060011461132a575b50505050565b90919394506000526020928360002092846000945b838610611356575050505001019038808080611324565b80548587018301529401938590820161133f565b9294505050602093945060ff191683830152151560051b01019038808080611324565b6000546001600160a01b031633036113a157565b606460405162461bcd60e51b815260206004820152602060248201527f4f776e61626c653a2063616c6c6572206973206e6f7420746865206f776e65726044820152fd5b919082018092116113f257565b634e487b7160e01b600052601160045260246000fd5b919091825167ffffffffffffffff81116110d85761142682546112bd565b601f81116114d0575b50602080601f831160011461146c575081929394600092611461575b50508160011b916000199060031b1c1916179055565b01519050388061144b565b90601f198316958460005282600020926000905b8882106114b85750508360019596971061149f575b505050811b019055565b015160001960f88460031b161c19169055388080611495565b80600185968294968601518155019501930190611480565b600083815260208120601f840160051c8101926020851061150e575b601f0160051c01915b82811061150357505061142f565b8181556001016114f5565b90925082906114ec565b6115309060206040519282848094519384920161119e565b810103902090565b1561153f57565b60405162461bcd60e51b815260206004820152601c60248201527f566f74696e6720706572696f6420646f6573206e6f74206578697374000000006044820152606490fd5b1561158b57565b60405162461bcd60e51b815260206004820152601d60248201527f566f74696e6720706572696f6420686173206e6f7420737461727465640000006044820152606490fd5b156115d757565b60405162461bcd60e51b815260206004820152601760248201527f566f74696e6720706572696f642068617320656e6465640000000000000000006044820152606490fd5b60001981146113f25760010190565b80548210156116435760005260206000200190600090565b634e487b7160e01b600052603260045260246000fd5b60026001541461166a576002600155565b60405162461bcd60e51b815260206004820152601f60248201527f5265656e7472616e637947756172643a207265656e7472616e742063616c6c006044820152606490fd5b91906116cb60206040948186519382858094519384920161119e565b81016003815203019020600091825260205282812090600582019384549182156117785790611708602083886104099552208251938480926112f7565b61171760068395018093611297565b549560015b84811061172c5750505050509190565b61067f61174861173c838561162b565b508551928380926112f7565b6117528582611297565b5489811161176b575b50506117669061161c565b61171c565b985095506117663861175b565b945091505051611787816110bc565b828152919056fea2646970667358221220cfaef772264f9ad40f57de19b1e581b9f2aea66384d418a1d86aa6c320886bca64736f6c63430008130033",
  "linkReferences": {},
  "deployedLinkReferences": {}
}