{
  "_format": "hh-sol-artifact-1",
  "contractName": "DepartmentManagement",
  "sourceName": "contracts/DepartmentManagement.sol",
  "abi": [
    {
      "inputs": [
        {
          "internalType": "address",
          "name": "_tusdTokenAddress",
          "type": "address"
        },
        {
          "internalType": "uint256",
          "name": "_joinRewardAmount",
          "type": "uint256"
        }
      ],
      "stateMutability": "nonpayable",
      "type": "constructor"
    },
    {
      "anonymous": false,
      "inputs": [
        {
          "indexed": true,
          "internalType": "string",
          "name": "departmentId",
          "type": "string"
        },
        {
          "indexed": true,
          "internalType": "uint256",
          "name": "periodId",
          "type": "uint256"
        },
        {
          "indexed": false,
          "internalType": "string",
          "name": "winnerDid",
          "type": "string"
        }
      ],
      "name": "ApplicationPeriodEnded",
      "type": "event"
    },
    {
      "anonymous": false,
      "inputs": [
        {
          "indexed": true,
          "internalType": "string",
          "name": "departmentId",
          "type": "string"
        },
        {
          "indexed": true,
          "internalType": "uint256",
          "name": "periodId",
          "type": "uint256"
        },
        {
          "indexed": false,
          "internalType": "uint256",
          "name": "startTime",
          "type": "uint256"
        },
        {
          "indexed": false,
          "internalType": "uint256",
          "name": "endTime",
          "type": "uint256"
        }
      ],
      "name": "ApplicationPeriodStarted",
      "type": "event"
    },
    {
      "anonymous": false,
      "inputs": [
        {
          "indexed": true,
          "internalType": "string",
          "name": "departmentId",
          "type": "string"
        },
        {
          "indexed": false,
          "internalType": "string",
          "name": "departmentName",
          "type": "string"
        },
        {
          "indexed": false,
          "internalType": "bool",
          "name": "requireTest",
          "type": "bool"
        },
        {
          "indexed": false,
          "internalType": "bool",
          "name": "requireVoting",
          "type": "bool"
        }
      ],
      "name": "DepartmentCreated",
      "type": "event"
    },
    {
      "anonymous": false,
      "inputs": [
        {
          "indexed": true,
          "internalType": "string",
          "name": "departmentId",
          "type": "string"
        },
        {
          "indexed": true,
          "internalType": "string",
          "name": "employeeDid",
          "type": "string"
        },
        {
          "indexed": false,
          "internalType": "address",
          "name": "walletAddress",
          "type": "address"
        },
        {
          "indexed": false,
          "internalType": "string",
          "name": "qualificationMethod",
          "type": "string"
        }
      ],
      "name": "EmployeeJoined",
      "type": "event"
    },
    {
      "anonymous": false,
      "inputs": [
        {
          "indexed": true,
          "internalType": "string",
          "name": "departmentId",
          "type": "string"
        },
        {
          "indexed": true,
          "internalType": "string",
          "name": "employeeDid",
          "type": "string"
        },
        {
          "indexed": false,
          "internalType": "string",
          "name": "reason",
          "type": "string"
        }
      ],
      "name": "EmployeeRemoved",
      "type": "event"
    },
    {
      "anonymous": false,
      "inputs": [
        {
          "indexed": true,
          "internalType": "string",
          "name": "departmentId",
          "type": "string"
        },
        {
          "indexed": true,
          "internalType": "string",
          "name": "employeeDid",
          "type": "string"
        },
        {
          "indexed": false,
          "internalType": "address",
          "name": "walletAddress",
          "type": "address"
        },
        {
          "indexed": false,
          "internalType": "uint256",
          "name": "amount",
          "type": "uint256"
        }
      ],
      "name": "JoinRewardPaid",
      "type": "event"
    },
    {
      "anonymous": false,
      "inputs": [
        {
          "indexed": true,
          "internalType": "address",
          "name": "previousOwner",
          "type": "address"
        },
        {
          "indexed": true,
          "internalType": "address",
          "name": "newOwner",
          "type": "address"
        }
      ],
      "name": "OwnershipTransferred",
      "type": "event"
    },
    {
      "inputs": [
        {
          "internalType": "string",
          "name": "",
          "type": "string"
        },
        {
          "internalType": "uint256",
          "name": "",
          "type": "uint256"
        }
      ],
      "name": "applicationPeriods",
      "outputs": [
        {
          "internalType": "uint256",
          "name": "periodId",
          "type": "uint256"
        },
        {
          "internalType": "uint256",
          "name": "startTime",
          "type": "uint256"
        },
        {
          "internalType": "uint256",
          "name": "endTime",
          "type": "uint256"
        },
        {
          "internalType": "bool",
          "name": "isActive",
          "type": "bool"
        }
      ],
      "stateMutability": "view",
      "type": "function"
    },
    {
      "inputs": [
        {
          "internalType": "string",
          "name": "departmentId",
          "type": "string"
        },
        {
          "internalType": "string",
          "name": "employeeDid",
          "type": "string"
        }
      ],
      "name": "checkQualification",
      "outputs": [
        {
          "internalType": "bool",
          "name": "qualified",
          "type": "bool"
        },
        {
          "internalType": "string",
          "name": "method",
          "type": "string"
        }
      ],
      "stateMutability": "view",
      "type": "function"
    },
    {
      "inputs": [
        {
          "internalType": "string",
          "name": "departmentId",
          "type": "string"
        },
        {
          "internalType": "string",
          "name": "departmentName",
          "type": "string"
        },
        {
          "internalType": "bool",
          "name": "requireTest",
          "type": "bool"
        },
        {
          "internalType": "address",
          "name": "testContractAddress",
          "type": "address"
        },
        {
          "internalType": "uint256",
          "name": "minTestScore",
          "type": "uint256"
        },
        {
          "internalType": "bool",
          "name": "requireVoting",
          "type": "bool"
        },
        {
          "internalType": "address",
          "name": "votingContractAddress",
          "type": "address"
        },
        {
          "internalType": "uint256",
          "name": "minVotes",
          "type": "uint256"
        },
        {
          "internalType": "uint256",
          "name": "votingPeriod",
          "type": "uint256"
        }
      ],
      "name": "createDepartment",
      "outputs": [],
      "stateMutability": "nonpayable",
      "type": "function"
    },
    {
      "inputs": [
        {
          "internalType": "string",
          "name": "",
          "type": "string"
        }
      ],
      "name": "currentPeriodId",
      "outputs": [
        {
          "internalType": "uint256",
          "name": "",
          "type": "uint256"
        }
      ],
      "stateMutability": "view",
      "type": "function"
    },
    {
      "inputs": [
        {
          "internalType": "string",
          "name": "",
          "type": "string"
        },
        {
          "internalType": "uint256",
          "name": "",
          "type": "uint256"
        }
      ],
      "name": "departmentMembers",
      "outputs": [
        {
          "internalType": "string",
          "name": "employeeDid",
          "type": "string"
        },
        {
          "internalType": "address",
          "name": "walletAddress",
          "type": "address"
        },
        {
          "internalType": "uint256",
          "name": "joinedAt",
          "type": "uint256"
        },
        {
          "internalType": "string",
          "name": "qualificationMethod",
          "type": "string"
        },
        {
          "internalType": "bool",
          "name": "isActive",
          "type": "bool"
        }
      ],
      "stateMutability": "view",
      "type": "function"
    },
    {
      "inputs": [
        {
          "internalType": "string",
          "name": "",
          "type": "string"
        }
      ],
      "name": "departments",
      "outputs": [
        {
          "internalType": "string",
          "name": "departmentId",
          "type": "string"
        },
        {
          "internalType": "string",
          "name": "departmentName",
          "type": "string"
        },
        {
          "internalType": "bool",
          "name": "isActive",
          "type": "bool"
        },
        {
          "internalType": "uint256",
          "name": "createdAt",
          "type": "uint256"
        },
        {
          "internalType": "bool",
          "name": "requireTest",
          "type": "bool"
        },
        {
          "internalType": "address",
          "name": "testContractAddress",
          "type": "address"
        },
        {
          "internalType": "uint256",
          "name": "minTestScore",
          "type": "uint256"
        },
        {
          "internalType": "bool",
          "name": "requireVoting",
          "type": "bool"
        },
        {
          "internalType": "address",
          "name": "votingContractAddress",
          "type": "address"
        },
        {
          "internalType": "uint256",
          "name": "minVotes",
          "type": "uint256"
        },
        {
          "internalType": "uint256",
          "name": "votingPeriod",
          "type": "uint256"
        }
      ],
      "stateMutability": "view",
      "type": "function"
    },
    {
      "inputs": [
        {
          "internalType": "uint256",
          "name": "amount",
          "type": "uint256"
        }
      ],
      "name": "depositTUSD",
      "outputs": [],
      "stateMutability": "nonpayable",
      "type": "function"
    },
    {
      "inputs": [
        {
          "internalType": "string",
          "name": "",
          "type": "string"
        },
        {
          "internalType": "uint256",
          "name": "",
          "type": "uint256"
        }
      ],
      "name": "employeeDepartments",
      "outputs": [
        {
          "internalType": "string",
          "name": "",
          "type": "string"
        }
      ],
      "stateMutability": "view",
      "type": "function"
    },
    {
      "inputs": [
        {
          "internalType": "string",
          "name": "departmentId",
          "type": "string"
        },
        {
          "internalType": "uint256",
          "name": "periodId",
          "type": "uint256"
        }
      ],
      "name": "endApplicationPeriod",
      "outputs": [],
      "stateMutability": "nonpayable",
      "type": "function"
    },
    {
      "inputs": [
        {
          "internalType": "string",
          "name": "departmentId",
          "type": "string"
        }
      ],
      "name": "getDepartment",
      "outputs": [
        {
          "components": [
            {
              "internalType": "string",
              "name": "departmentId",
              "type": "string"
            },
            {
              "internalType": "string",
              "name": "departmentName",
              "type": "string"
            },
            {
              "internalType": "bool",
              "name": "isActive",
              "type": "bool"
            },
            {
              "internalType": "uint256",
              "name": "createdAt",
              "type": "uint256"
            },
            {
              "internalType": "bool",
              "name": "requireTest",
              "type": "bool"
            },
            {
              "internalType": "address",
              "name": "testContractAddress",
              "type": "address"
            },
            {
              "internalType": "uint256",
              "name": "minTestScore",
              "type": "uint256"
            },
            {
              "internalType": "bool",
              "name": "requireVoting",
              "type": "bool"
            },
            {
              "internalType": "address",
              "name": "votingContractAddress",
              "type": "address"
            },
            {
              "internalType": "uint256",
              "name": "minVotes",
              "type": "uint256"
            },
            {
              "internalType": "uint256",
              "name": "votingPeriod",
              "type": "uint256"
            }
          ],
          "internalType": "struct DepartmentManagement.DepartmentConfig",
          "name": "",
          "type": "tuple"
        }
      ],
      "stateMutability": "view",
      "type": "function"
    },
    {
      "inputs": [
        {
          "internalType": "string",
          "name": "departmentId",
          "type": "string"
        }
      ],
      "name": "getDepartmentMembers",
      "outputs": [
        {
          "components": [
            {
              "internalType": "string",
              "name": "employeeDid",
              "type": "string"
            },
            {
              "internalType": "address",
              "name": "walletAddress",
              "type": "address"
            },
            {
              "internalType": "uint256",
              "name": "joinedAt",
              "type": "uint256"
            },
            {
              "internalType": "string",
              "name": "qualificationMethod",
              "type": "string"
            },
            {
              "internalType": "bool",
              "name": "isActive",
              "type": "bool"
            }
          ],
          "internalType": "struct DepartmentManagement.DepartmentMember[]",
          "name": "",
          "type": "tuple[]"
        }
      ],
      "stateMutability": "view",
      "type": "function"
    },
    {
      "inputs": [
        {
          "internalType": "string",
          "name": "employeeDid",
          "type": "string"
        }
      ],
      "name": "getEmployeeDepartments",
      "outputs": [
        {
          "internalType": "string[]",
          "name": "",
          "type": "string[]"
        }
      ],
      "stateMutability": "view",
      "type": "function"
    },
    {
      "inputs": [],
      "name": "getTUSDBalance",
      "outputs": [
        {
          "internalType": "uint256",
          "name": "",
          "type": "uint256"
        }
      ],
      "stateMutability": "view",
      "type": "function"
    },
    {
      "inputs": [],
      "name": "getTotalDepartments",
      "outputs": [
        {
          "internalType": "uint256",
          "name": "",
          "type": "uint256"
        }
      ],
      "stateMutability": "view",
      "type": "function"
    },
    {
      "inputs": [
        {
          "internalType": "string",
          "name": "departmentId",
          "type": "string"
        },
        {
          "internalType": "string",
          "name": "employeeDid",
          "type": "string"
        }
      ],
      "name": "isMemberOfDepartment",
      "outputs": [
        {
          "internalType": "bool",
          "name": "",
          "type": "bool"
        }
      ],
      "stateMutability": "view",
      "type": "function"
    },
    {
      "inputs": [
        {
          "internalType": "string",
          "name": "departmentId",
          "type": "string"
        },
        {
          "internalType": "string",
          "name": "employeeDid",
          "type": "string"
        },
        {
          "internalType": "address",
          "name": "walletAddress",
          "type": "address"
        }
      ],
      "name": "joinDepartment",
      "outputs": [],
      "stateMutability": "nonpayable",
      "type": "function"
    },
    {
      "inputs": [],
      "name": "joinRewardAmount",
      "outputs": [
        {
          "internalType": "uint256",
          "name": "",
          "type": "uint256"
        }
      ],
      "stateMutability": "view",
      "type": "function"
    },
    {
      "inputs": [],
      "name": "owner",
      "outputs": [
        {
          "internalType": "address",
          "name": "",
          "type": "address"
        }
      ],
      "stateMutability": "view",
      "type": "function"
    },
    {
      "inputs": [
        {
          "internalType": "string",
          "name": "departmentId",
          "type": "string"
        },
        {
          "internalType": "string",
          "name": "employeeDid",
          "type": "string"
        },
        {
          "internalType": "string",
          "name": "reason",
          "type": "string"
        }
      ],
      "name": "removeEmployeeFromDepartment",
      "outputs": [],
      "stateMutability": "nonpayable",
      "type": "function"
    },
    {
      "inputs": [],
      "name": "renounceOwnership",
      "outputs": [],
      "stateMutability": "nonpayable",
      "type": "function"
    },
    {
      "inputs": [
        {
          "internalType": "string",
          "name": "departmentId",
          "type": "string"
        },
        {
          "internalType": "bool",
          "name": "isActive",
          "type": "bool"
        }
      ],
      "name": "setDepartmentActive",
      "outputs": [],
      "stateMutability": "nonpayable",
      "type": "function"
    },
    {
      "inputs": [
        {
          "internalType": "uint256",
          "name": "_newAmount",
          "type": "uint256"
        }
      ],
      "name": "setJoinRewardAmount",
      "outputs": [],
      "stateMutability": "nonpayable",
      "type": "function"
    },
    {
      "inputs": [
        {
          "internalType": "string",
          "name": "departmentId",
          "type": "string"
        }
      ],
      "name": "startApplicationPeriod",
      "outputs": [],
      "stateMutability": "nonpayable",
      "type": "function"
    },
    {
      "inputs": [
        {
          "internalType": "address",
          "name": "newOwner",
          "type": "address"
        }
      ],
      "name": "transferOwnership",
      "outputs": [],
      "stateMutability": "nonpayable",
      "type": "function"
    },
    {
      "inputs": [],
      "name": "tusdToken",
      "outputs": [
        {
          "internalType": "contract IERC20",
          "name": "",
          "type": "address"
        }
      ],
      "stateMutability": "view",
      "type": "function"
    },
    {
      "inputs": [
        {
          "internalType": "uint256",
          "name": "amount",
          "type": "uint256"
        }
      ],
      "name": "withdrawTUSD",
      "outputs": [],
      "stateMutability": "nonpayable",
      "type": "function"
    }
  ],
  "bytecode": "0x6080346200010757601f620032fb38819003918201601f19168301916001600160401b038311848410176200010c578084926040948552833981010312620001075780516001600160a01b039182821691829003620001075760200151916000549060018060a01b0319913383821617600055604051913391167f8be0079c531659141344cd1fd0a4f28419497f9722a3daafe3b4186f6b6457e0600080a3600180558215620000c5575060025416176002556003556040516131d89081620001238239f35b62461bcd60e51b815260206004820152601a60248201527f496e76616c6964205455534420746f6b656e20616464726573730000000000006044820152606490fd5b600080fd5b634e487b7160e01b600052604160045260246000fdfe6080604052600436101561001257600080fd5b60003560e01c80630d708ca9146121e75780630da9e7f0146121c957806311f059e1146120cb5780631d78a4b21461201357806324bae02514611f8b5780632e06d22e14611f6a5780634054008a14611a875780634815758a14611a645780635302b1c514611a2e5780635664b620146119b65780635c531d6a1461197957806360d8c5ec1461176857806360f5b200146116f8578063708a476414611495578063715018a61461143c57806373d626881461141e5780638c799247146113d55780638da5cb5b146113ac578063a564f82c14611312578063a62281ed146112a4578063a69dc7f81461127b578063bae1230814610e2e578063cdd9909714610ace578063d17acf7814610336578063f2fde38b1461026b5763fa3e49361461013a57600080fd5b34610266576020366003190112610266576004356001600160401b03811161026657610185602061017261020493369060040161243a565b8160405193828580945193849201612481565b81016006815203019020604051906101a8826101a18184612566565b03836123fe565b6040516101c3816101bc8160018601612566565b03826123fe565b60ff600283015416916003810154600482015490600583015460068401549161021260086007870154960154966040519a8b9a610160808d528c01906124a4565b908a820360208c01526124a4565b9615156040890152606088015260ff83161515608088015260018060a01b03809360081c1660a088015260c087015260ff8116151560e087015260081c166101008501526101208401526101408301520390f35b600080fd5b34610266576020366003190112610266576004356001600160a01b03818116918290036102665761029a61265a565b81156102e257600054826bffffffffffffffffffffffff60a01b821617600055167f8be0079c531659141344cd1fd0a4f28419497f9722a3daafe3b4186f6b6457e0600080a3005b60405162461bcd60e51b815260206004820152602660248201527f4f776e61626c653a206e6577206f776e657220697320746865207a65726f206160448201526564647265737360d01b6064820152608490fd5b34610266576060366003190112610266576001600160401b036004358181116102665761036790369060040161243a565b906024359081116102665761038090369060040161243a565b6044356001600160a01b038116900361026657600260015414610a895760026001556103d46103cd60405160208186516103bd8183858b01612481565b810160068152030190205461252c565b15156127f7565b61040260ff600260405160208187516103f08183858c01612481565b81016006815203019020015416612843565b805115610a44576044356001600160a01b031615610a06576104248183612c9b565b6109b557604051602081845161043d8183858901612481565b8101600681520301902091600860405193610457856123ac565b604051610468816101bc8185612566565b855260405161047e816101bc8160018601612566565b602086015260ff6002820154161515604086015260038101546060860152600481015460ff81161515608087015260018060a01b0390831c1660a0860152600581015460c0860152600681015460ff8116151560e087015260018060a01b0390831c1661010086015260078101546101208601520154610140840152604051610506816123c8565b6000815292600090608081015161090f575b811580610902575b610795575b50156107365761058760405160208184516105438183858901612481565b810160078152030190206040519061055a8261237b565b8482526044356001600160a01b0316602083015242604083015260608201869052600160808301526129b5565b6105af8160405160208186516105a08183858b01612481565b81016008815203019020612a42565b6003548061060b575b506106026105dd6105d7600080516020613183833981519152936127d7565b936127d7565b9360405191829160018060a01b036044351683526040602084015260408301906124a4565b0390a360018055005b6002546040516370a0823160e01b81523060048201526001600160a01b039091169190602081602481865afa90811561072a576000916106ea575b506000805160206131838339815191529361060293836105dd946105d7941015610676575b5050935050506105b8565b6106839160443590612a6f565b60035461068f826127d7565b7fed049c7336b6969230fc3b5b82e44e1e3e35308e6f618e01677ae1fbb86f1f4f6106e06106bc8a6127d7565b604080516001600160a01b0360443516815260208101969096529094918291820190565b0390a3878061066b565b90506020813d602011610722575b81610705602093836123fe565b810103126102665751600080516020613183833981519152610646565b3d91506106f8565b6040513d6000823e3d90fd5b60405162461bcd60e51b815260206004820152603160248201527f456d706c6f79656520646f6573206e6f74206d656574207175616c696669636160448201527074696f6e20726571756972656d656e747360781b6064820152608490fd5b60405160208185516107aa8183858a01612481565b8101600a81520301902054806107c1575b50610525565b6101008201516040516317da051760e21b8152916001600160a01b0390911690602083806107f4848a8c600485016128fb565b0381855afa92831561072a576000936108cd575b50600090604051928380809363215ef93b60e01b825260406004830152610832604483018c6124a4565b90602483015203915afa90811561072a576000906000926108a7575b506020815191012086516020880120149283610897575b508261088d575b505061087a575b84806107bb565b5060019250610887612993565b92610873565b149050858061086c565b6101200151811015925087610865565b90506108c691503d806000833e6108be81836123fe565b810190612929565b908861084e565b9092506020813d6020116108fa575b816108e9602093836123fe565b810103126102665751916000610808565b3d91506108dc565b5060e08101511515610520565b60a08101516040805163535aa8a760e11b81529182906001600160a01b0316818061093e898b600484016128b6565b03915afa90811561072a57600090600092610983575b5081610974575b501561051857935050600161096e6128db565b93610518565b905060c082015111158661095b565b90506109a7915060403d6040116109ae575b61099f81836123fe565b81019061289c565b9087610954565b503d610995565b60405162461bcd60e51b815260206004820152602360248201527f416c72656164792061206d656d626572206f662074686973206465706172746d604482015262195b9d60ea1b6064820152608490fd5b60405162461bcd60e51b8152602060048201526016602482015275496e76616c69642077616c6c6574206164647265737360501b6044820152606490fd5b60405162461bcd60e51b815260206004820152601c60248201527f456d706c6f796565204449442063616e6e6f7420626520656d707479000000006044820152606490fd5b60405162461bcd60e51b815260206004820152601f60248201527f5265656e7472616e637947756172643a207265656e7472616e742063616c6c006044820152606490fd5b34610266576060366003190112610266576001600160401b0360043581811161026657610aff90369060040161243a565b602490813583811161026657610b1990369060040161243a565b9260443590811161026657610b3290369060040161243a565b92610b3b61265a565b60405193825192610b5c6103cd6020978881818601986103bd81838c612481565b60405186818351610b6e81838a612481565b8101600781520301902094600095600090888601915b8154811015610e21576101bc610baa610b9d83856124fa565b5060405192838092612566565b8a8151910120875184201480610e09575b610bcd57610bc890612c78565b610b84565b60049293949596979850610be0916124fa565b5001805460ff1916905560015b15610dc75786610c0891604051809381928951928391612481565b8101600881520301902060005b815480821015610d93576101bc610c2f610b9d8486612642565b8981519101208551892014610c4d5750610c4890612c78565b610c15565b9192939495965060001991828101908111610d7e57610c6f610c779185612642565b509184612642565b610d695790610c8591612dcf565b81548015610d54570191610c998383612642565b919091610d40575092610ce6926105d79285610cd77fd45caf950b4626f7c7504fb548d1d2cba273ac2dc6abdc2c9dbff19b4ac1b4d398975461252c565b9081610d00575b5050556127d7565b93610cfb6040519282849384528301906124a4565b0390a3005b600091601f8c818311600114610d1c57505050555b8980610cde565b8391610d399186949585528420940160051c8401600185016126b2565b5555610d15565b634e487b7160e01b60005260006004526000fd5b83634e487b7160e01b60005260316004526000fd5b84634e487b7160e01b60005260006004526000fd5b84634e487b7160e01b60005260116004526000fd5b505050507fd45caf950b4626f7c7504fb548d1d2cba273ac2dc6abdc2c9dbff19b4ac1b4d39293506105d7610ce6916127d7565b606482886040519162461bcd60e51b83528160048401528201527f456d706c6f796565206e6f7420666f756e6420696e206465706172746d656e746044820152fd5b5060ff6004610e1883856124fa565b50015416610bbb565b5050909192939495610bed565b3461026657610e3c366124c9565b90610e4561265a565b60405190805190610e666103cd6020948581818601966103bd81838a612481565b60405183818351610e78818388612481565b81016009815203019020846000528352604060002091600383019283549060ff82161561123f576002015442106111fa5760405185818551610ebb818388612481565b8101600681520301902060405190610ed2826123ac565b604051610ee3816101bc8185612566565b8252604051610ef9816101bc8160018601612566565b8783015260ff600282015416151560408301526003810154606083015260048101549260ff84161515608084015260018060a01b03809460081c1660a0840152600582015460c084015283600683015460ff8116151560e086015260081c1692836101008201526101406008600785015494610120840195865201549101526040519663215ef93b60e01b88526040600489015260008880610f9e604482018b6124a4565b8d60248301520381875afa91821561072a576000986000936111d7575b5060ff191690558651151591826111cb575b5050806111ba575b61101d575b505050906110087f0dde49689a56968699a650dd8fffc8736ca962b4670ae771ade5d86d1e593557926127d7565b92610cfb6040519282849384528301906124a4565b85604051809263bf0e5f4160e01b8252818061103e8c8a8c600485016128fb565b03915afa90811561072a57600091611184575b501690811561113f5791611008916110d861109a877f0dde49689a56968699a650dd8fffc8736ca962b4670ae771ade5d86d1e5935579796604051809381928851928391612481565b81016007815203019020604051906110b18261237b565b86825283898301524260408301526110c7612993565b6060830152600160808301526129b5565b6110f082604051888188516105a08183858d01612481565b6110f9826127d7565b6000805160206131838339815191526080611113876127d7565b9360405190815260408a8201526006604082015265766f74696e6760d01b6060820152a3919286610fda565b60405162461bcd60e51b815260048101869052601f60248201527f57696e6e65722077616c6c65742061646472657373206e6f7420666f756e64006044820152606490fd5b90508581813d83116111b3575b61119b81836123fe565b81010312610266575181811681036102665787611051565b503d611191565b506111c58585612c9b565b15610fd5565b51111590508880610fcd565b9092506111f09198503d806000833e6108be81836123fe565b979097918b610fbb565b60405162461bcd60e51b815260048101869052601860248201527f506572696f6420686173206e6f7420656e6465642079657400000000000000006044820152606490fd5b60405162461bcd60e51b8152600481018790526014602482015273506572696f64206973206e6f742061637469766560601b6044820152606490fd5b34610266576000366003190112610266576002546040516001600160a01b039091168152602090f35b34610266576020366003190112610266576113106004356112c361265a565b6112ce811515613136565b6002546040516323b872dd60e01b60208201523360248201523060448201526064808201939093529182526001600160a01b031661130b8261237b565b612aab565b005b34610266576040366003190112610266576004356001600160401b0381116102665761134290369060040161243a565b602435801515810361026657600261139060206113109461136161265a565b6040519061137f6103cd8251938581818601966103bd81838a612481565b604051938492839251928391612481565b81016006815203019020019060ff801983541691151516179055565b34610266576000366003190112610266576000546040516001600160a01b039091168152602090f35b34610266576020366003190112610266576004356001600160401b0381116102665761140b60206101728193369060040161243a565b8101600a81520301902054604051908152f35b34610266576000366003190112610266576020600354604051908152f35b346102665760003660031901126102665761145561265a565b600080546001600160a01b0319811682556001600160a01b03167f8be0079c531659141344cd1fd0a4f28419497f9722a3daafe3b4186f6b6457e08280a3005b3461026657602080600319360112610266576004356001600160401b038111610266576114c690369060040161243a565b906114cf61265a565b6040516114ec6103cd8451928481818801956103bd818389612481565b61150560ff6002604051858188516103f081838a612481565b60405182818551611517818387612481565b81016006815203019020926040519361152f856123ac565b604051611540816101bc8185612566565b8552604051611556816101bc8160018601612566565b8486015260ff6002820154161515604086015260038101546060860152610140600860048301549260ff84161515608089015260018060a01b038094831c1660a0890152600581015460c089015260068101549360ff85161594851560e08b0152831c166101008901526007810154610120890152015495019485526116b35760016005540193846005555162278d009081810291818304149015171561169d5742019283421161169d5761169060409286611680847f2dab67fc676498908e6f6b84d9e9edcc77c73e94cb18bd1844d8a08b939511469787518281875161163f818387612481565b810160098152030190208460005282526003886000208581554260018201558b600282015501600160ff198254161790558751809381928751928391612481565b8101600a815203019020556127d7565b93825191428352820152a3005b634e487b7160e01b600052601160045260246000fd5b60405162461bcd60e51b815260048101849052601e60248201527f4465706172746d656e7420646f6573206e6f742075736520766f74696e6700006044820152606490fd5b3461026657602061172061170b366124c9565b92908160405193828580945193849201612481565b81016009815203019020906000526020526080604060002080549060018101549060ff6003600283015492015416916040519384526020840152604083015215156060820152f35b34610266576020366003190112610266576004356001600160401b03811161026657602061179d61180a92369060040161243a565b60006101406040516117ae816123ac565b606081526060858201528260408201528260608201528260808201528260a08201528260c08201528260e0820152826101008201528261012082015201526040519061137f6103cd8251938581818601966103bd81838a612481565b81016006815203019020600860405191611823836123ac565b604051611834816101bc8185612566565b835260405161184a816101bc8160018601612566565b602084015260ff6002820154161515604084015260038101546060840152600481015460ff81161515608085015260018060a01b0390831c1660a0840152600581015460c0840152600681015460ff8116151560e085015260018060a01b0390831c16610100840152600781015461012084015201546101408201526040518091602082526101406119036118ed835161016060208701526101808601906124a4565b6020840151858203601f190160408701526124a4565b91604081015115156060850152606081015160808501526080810151151560a085015260018060a01b0360a08201511660c085015260c081015160e085015260e0810151151561010085015260018060a01b03610100820151166101208501526101208101518285015201516101608301520390f35b346102665760203660031901126102665761131060043561199861265a565b6119a3811515613136565b60025433906001600160a01b0316612a6f565b346102665760206119c961170b366124c9565b81016008815203019020908154811015610266576119e691612642565b611a18576101bc611a00611a149260405192838092612566565b6040519182916020835260208301906124a4565b0390f35b634e487b7160e01b600052600060045260246000fd5b3461026657611a45611a3f366125fc565b90612eab565b90611a14604051928392151583526040602084015260408301906124a4565b34610266576020611a7d611a77366125fc565b90612c9b565b6040519015158152f35b3461026657610120366003190112610266576001600160401b0360043581811161026657611ab990369060040161243a565b9060243590811161026657611ad290369060040161243a565b90604435151560443503610266576064356001600160a01b03811681036102665760a435151560a435036102665760c435906001600160a01b038216820361026657611b1c61265a565b825115611f2557611b3b60405160208186516103bd8183858b01612481565b611ee0576044358015611ed7575b15611e7857604435611dc8575b60a435611d35575b60405191611b6b836123ac565b83835260208301918583526040840191600183526060850191428352608086016044351515815260a0870191600160a01b6001900316825260c0870191608435835260e088019460a43515158652610100890194600160a01b6001900316855261012089019660e43588526101408a0198610104358a52604051808d818151602081930191611bf992612481565b8101600681520360200190209a51611c11908c612710565b51611c1f9060018c01612710565b51151560028a0190611c3c919060ff801983541691151516179055565b5160038901556004880191511515611c6090839060ff801983541691151516179055565b518154610100600160a81b03191660089190911b610100600160a81b03161790555160058601556006850191511515611ca590839060ff801983541691151516179055565b518154610100600160a81b03191660089190911b610100600160a81b0316179055516007830155519060080155600454600101600455611ce4906127d7565b9060405180916060825260608201611cfb916124a4565b6044351515602083015260a43515156040830152037fda85695458e3132d5f42c7bbddfa68f7536e9560d21fe78ed6c52020432ee13991a2005b6001600160a01b03821615611d845760e435611b5e5760405162461bcd60e51b8152602060048201526011602482015270496e76616c6964206d696e20766f74657360781b6044820152606490fd5b606460405162461bcd60e51b815260206004820152602060248201527f566f74696e6720636f6e747261637420616464726573732072657175697265646044820152fd5b6001600160a01b03811615611e33576084358015159081611e27575b50611b565760405162461bcd60e51b8152602060048201526016602482015275496e76616c6964206d696e20746573742073636f726560501b6044820152606490fd5b60649150111585611de4565b60405162461bcd60e51b815260206004820152601e60248201527f5465737420636f6e7472616374206164647265737320726571756972656400006044820152606490fd5b60405162461bcd60e51b815260206004820152603160248201527f4174206c65617374206f6e65207175616c696669636174696f6e206d6574686f60448201527019081b5d5cdd08189948195b98589b1959607a1b6064820152608490fd5b5060a435611b49565b60405162461bcd60e51b815260206004820152601960248201527f4465706172746d656e7420616c726561647920657869737473000000000000006044820152606490fd5b60405162461bcd60e51b815260206004820152601d60248201527f4465706172746d656e742049442063616e6e6f7420626520656d7074790000006044820152606490fd5b3461026657602036600319011261026657611f8361265a565b600435600355005b34610266576000366003190112610266576002546040516370a0823160e01b815230600482015290602090829060249082906001600160a01b03165afa801561072a57600090611fe1575b602090604051908152f35b506020813d821161200b575b81611ffa602093836123fe565b810103126102665760209051611fd6565b3d9150611fed565b3461026657602061202661170b366124c9565b810160078152030190208054821015610266576120a791612046916124fa565b5060405190612059826101a18184612566565b6120bf60018060a01b0360018301541660028301549260ff60046040519261208f846120888160038501612566565b03856123fe565b0154169360405196879660a0885260a08801906124a4565b926020870152604086015284820360608601526124a4565b90151560808301520390f35b3461026657602080600319360112610266576004356001600160401b038111610266578161017261210092369060040161243a565b810160088152030190209081549161211783612c61565b9261212560405194856123fe565b8084528284018092600052836000206000915b83831061219f5750505050604051918083019381845251809452604083019360408160051b85010192916000955b8287106121735785850386f35b90919293828061218f600193603f198a820301865288516124a4565b9601920196019592919092612166565b60018681926040999899516121b8816101bc8189612566565b815201920192019190959495612138565b34610266576000366003190112610266576020600454604051908152f35b3461026657602080600319360112610266576004356001600160401b038111610266578161017261221c92369060040161243a565b810160078152030190209081549161223383612c61565b9261224160405194856123fe565b8084528284018092600052836000206000915b8383106123015750505050604051918083019381845251809452604083019360408160051b85010192916000955b82871061228f5785850386f35b909192938280600192603f198982030185528751906122e56122b9835160a08085528401906124a4565b868060a01b038585015116858401526040840151604084015260608085015190848303908501526124a4565b9160808091015115159101529601920196019592919092612282565b6005866001926040999899516123168161237b565b604051612327816101bc818a612566565b8152848060a01b0385870154168382015260028601546040820152604051612356816101bc8160038b01612566565b606082015260ff60048701541615156080820152815201920192019190959495612254565b60a081019081106001600160401b0382111761239657604052565b634e487b7160e01b600052604160045260246000fd5b61016081019081106001600160401b0382111761239657604052565b602081019081106001600160401b0382111761239657604052565b604081019081106001600160401b0382111761239657604052565b90601f801991011681019081106001600160401b0382111761239657604052565b6001600160401b03811161239657601f01601f191660200190565b81601f82011215610266578035906124518261241f565b9261245f60405194856123fe565b8284526020838301011161026657816000926020809301838601378301015290565b60005b8381106124945750506000910152565b8181015183820152602001612484565b906020916124bd81518092818552858086019101612481565b601f01601f1916010190565b604060031982011261026657600435906001600160401b038211610266576124f39160040161243a565b9060243590565b8054821015612516576000526005602060002091020190600090565b634e487b7160e01b600052603260045260246000fd5b90600182811c9216801561255c575b602083101461254657565b634e487b7160e01b600052602260045260246000fd5b91607f169161253b565b90600092918054916125778361252c565b9182825260019384811690816000146125d95750600114612599575b50505050565b90919394506000526020928360002092846000945b8386106125c5575050505001019038808080612593565b8054858701830152940193859082016125ae565b9294505050602093945060ff191683830152151560051b01019038808080612593565b906040600319830112610266576001600160401b0360043581811161026657836126289160040161243a565b926024359182116102665761263f9160040161243a565b90565b80548210156125165760005260206000200190600090565b6000546001600160a01b0316330361266e57565b606460405162461bcd60e51b815260206004820152602060248201527f4f776e61626c653a2063616c6c6572206973206e6f7420746865206f776e65726044820152fd5b8181106126bd575050565b600081556001016126b2565b9190601f81116126d857505050565b612704926000526020600020906020601f840160051c83019310612706575b601f0160051c01906126b2565b565b90915081906126f7565b91909182516001600160401b0381116123965761273781612731845461252c565b846126c9565b602080601f8311600114612773575081929394600092612768575b50508160011b916000199060031b1c1916179055565b015190503880612752565b90601f198316958460005282600020926000905b8882106127bf575050836001959697106127a6575b505050811b019055565b015160001960f88460031b161c1916905538808061279c565b80600185968294968601518155019501930190612787565b6127ef90602060405192828480945193849201612481565b810103902090565b156127fe57565b60405162461bcd60e51b815260206004820152601960248201527f4465706172746d656e7420646f6573206e6f74206578697374000000000000006044820152606490fd5b1561284a57565b60405162461bcd60e51b815260206004820152601860248201527f4465706172746d656e74206973206e6f742061637469766500000000000000006044820152606490fd5b5190811515820361026657565b91908260409103126102665761263f60208351930161288f565b90916128cd61263f936040845260408401906124a4565b9160208184039101526124a4565b604051906128e8826123e3565b60048252631d195cdd60e21b6020830152565b939291612924906129166040936060885260608801906124a4565b9086820360208801526124a4565b930152565b91906040838203126102665782516001600160401b0381116102665783019080601f830112156102665781519161295f8361241f565b9161296d60405193846123fe565b838352602084830101116102665760209261298d91848085019101612481565b92015190565b604051906129a0826123e3565b6006825265766f74696e6760d01b6020830152565b8054600160401b811015612396576129d2916001820181556124fa565b611a185760046080836129e9612704955185612710565b6001840160018060a01b036020830151166bffffffffffffffffffffffff60a01b82541617905560408101516002850155612a2b606082015160038601612710565b0151151591019060ff801983541691151516179055565b8054600160401b81101561239657612a5f91600182018155612642565b919091611a185761270491612710565b60405163a9059cbb60e01b60208201526001600160a01b039290921660248301526044808301939093529181526127049161130b6064836123fe565b60018060a01b031690612b28604051612ac3816123e3565b6020938482527f5361666545524332303a206c6f772d6c6576656c2063616c6c206661696c6564858301526000808587829751910182855af13d15612bc0573d91612b0d8361241f565b92612b1b60405194856123fe565b83523d868885013e612bc4565b90815190838215928315612b9b575b505050905015612b445750565b6084906040519062461bcd60e51b82526004820152602a60248201527f5361666545524332303a204552433230206f7065726174696f6e20646964206e6044820152691bdd081cdd58d8d9595960b21b6064820152fd5b848092939450010312612bbd575081612bb4910161288f565b80388381612b37565b80fd5b6060915b91929015612c265750815115612bd8575090565b3b15612be15790565b60405162461bcd60e51b815260206004820152601d60248201527f416464726573733a2063616c6c20746f206e6f6e2d636f6e74726163740000006044820152606490fd5b825190915015612c395750805190602001fd5b60405162461bcd60e51b815260206004820152908190612c5d9060248301906124a4565b0390fd5b6001600160401b0381116123965760051b60200190565b600019811461169d5760010190565b80518210156125165760209160051b010190565b9060409081518381809551612cb68160209889809601612481565b81016007815203019020805490612ccc82612c61565b93612cd9815195866123fe565b828552600091825285822090868087015b858510612d5d5750505050505060005b8251811015612d5457612d0d8184612c87565b51518481519101208251858401201480612d3d575b612d3457612d2f90612c78565b612cfa565b50505050600190565b506080612d4a8285612c87565b5101511515612d22565b50505050600090565b6001916005918451612d6e8161237b565b8551612d7e816101bc818b612566565b8152848060a01b038588015416838201526002870154868201528551612dab816101bc8160038c01612566565b606082015260ff600488015416151560808201528152019301930192918790612cea565b90808214612ea757612de1815461252c565b906001600160401b038211612396578190612e0682612e00865461252c565b866126c9565b600090601f8311600114612e3c57600092612e315750508160011b916000199060031b1c1916179055565b015490503880612752565b81526020808220858352818320935090601f1985169083905b828210612e8e575050908460019594939210612e7557505050811b019055565b015460001960f88460031b161c1916905538808061279c565b8495819295850154815560018091019601940190612e55565b5050565b91906040928351815192602091828181860196612ec981838a612481565b81016006815203019020938651612edf816123ac565b875180612eec8189612566565b03612ef790826123fe565b8152875180612f098160018a01612566565b03612f1490826123fe565b84820152600286015460ff161515888201526003860154606082015260048601549160ff8316151591826080820152600160a01b60019003809460081c168060a083015260058901549060c083019182528b8960068c01549660e086019560ff8916151587528d8a61010083019a60081c168a52600701549d61012082019e8f526008015490610140015261309f575b5050505051612fc9575b5050505050505060009151612fc2816123c8565b6000815290565b84612fde918a51809381928a51928391612481565b8101600a81520301902054948515612fae5760009261301c92511690895180978194829363215ef93b60e01b84528d600485015260448401906124a4565b90602483015203915afa928315613094576000908194613076575b5082815191012091815191012014918261306a575b505061305e5738808080808080612fae565b6001915061263f612993565b5111159050388061304c565b9061308c9294503d8091833e6108be81836123fe565b929038613037565b86513d6000823e3d90fd5b6130be928251808095819463535aa8a760e11b83528d600484016128b6565b03915afa91821561312b57600091829361310a575b50826130fe575b50506130e95738808b89612fa4565b5050505050505050905060019061263f6128db565b511115905038806130da565b90925061312491508c8d3d106109ae5761099f81836123fe565b91386130d3565b8c513d6000823e3d90fd5b1561313d57565b60405162461bcd60e51b815260206004820152601d60248201527f416d6f756e74206d7573742062652067726561746572207468616e20300000006044820152606490fdfe394c7aed9fa71d02d1113d6f76afcc30f551d1e4bd8938bbddfe1d3ffd32a6e3a264697066735822122030f21aa44170ac704947f479107975309434274563ffb829fbc6e76ba746450264736f6c63430008130033",
  "linkReferences": {},
  "deployedLinkReferences": {}
}