{
  "_format": "hh-sol-artifact-1",
  "contractName": "SimpleTestManagement",
  "sourceName": "contracts/SimpleTestManagement.sol",
  "abi": [
    {
      "anonymous": false,
      "inputs": [
        {
          "indexed": true,
          "internalType": "address",
          "name": "previousOwner",
          "type": "address"
        },
        {
          "indexed": true,
          "internalType": "address",
          "name": "newOwner",
          "type": "address"
        }
      ],
      "name": "OwnershipTransferred",
      "type": "event"
    },
    {
      "anonymous": false,
      "inputs": [
        {
          "indexed": true,
          "internalType": "string",
          "name": "departmentId",
          "type": "string"
        },
        {
          "indexed": true,
          "internalType": "string",
          "name": "employeeDid",
          "type": "string"
        },
        {
          "indexed": false,
          "internalType": "uint256",
          "name": "score",
          "type": "uint256"
        }
      ],
      "name": "TestScoreRecorded",
      "type": "event"
    },
    {
      "inputs": [
        {
          "internalType": "string",
          "name": "employeeDid",
          "type": "string"
        },
        {
          "internalType": "string",
          "name": "departmentId",
          "type": "string"
        }
      ],
      "name": "getTestScore",
      "outputs": [
        {
          "internalType": "uint256",
          "name": "score",
          "type": "uint256"
        },
        {
          "internalType": "bool",
          "name": "passed",
          "type": "bool"
        }
      ],
      "stateMutability": "view",
      "type": "function"
    },
    {
      "inputs": [
        {
          "internalType": "string",
          "name": "employeeDid",
          "type": "string"
        },
        {
          "internalType": "string",
          "name": "departmentId",
          "type": "string"
        }
      ],
      "name": "hasPassedTest",
      "outputs": [
        {
          "internalType": "bool",
          "name": "",
          "type": "bool"
        }
      ],
      "stateMutability": "view",
      "type": "function"
    },
    {
      "inputs": [
        {
          "internalType": "string",
          "name": "",
          "type": "string"
        },
        {
          "internalType": "string",
          "name": "",
          "type": "string"
        }
      ],
      "name": "hasTakenTest",
      "outputs": [
        {
          "internalType": "bool",
          "name": "",
          "type": "bool"
        }
      ],
      "stateMutability": "view",
      "type": "function"
    },
    {
      "inputs": [],
      "name": "owner",
      "outputs": [
        {
          "internalType": "address",
          "name": "",
          "type": "address"
        }
      ],
      "stateMutability": "view",
      "type": "function"
    },
    {
      "inputs": [
        {
          "internalType": "string",
          "name": "departmentId",
          "type": "string"
        },
        {
          "internalType": "string",
          "name": "employeeDid",
          "type": "string"
        },
        {
          "internalType": "uint256",
          "name": "score",
          "type": "uint256"
        }
      ],
      "name": "recordTestScore",
      "outputs": [],
      "stateMutability": "nonpayable",
      "type": "function"
    },
    {
      "inputs": [],
      "name": "renounceOwnership",
      "outputs": [],
      "stateMutability": "nonpayable",
      "type": "function"
    },
    {
      "inputs": [
        {
          "internalType": "string",
          "name": "",
          "type": "string"
        },
        {
          "internalType": "string",
          "name": "",
          "type": "string"
        }
      ],
      "name": "testScores",
      "outputs": [
        {
          "internalType": "uint256",
          "name": "",
          "type": "uint256"
        }
      ],
      "stateMutability": "view",
      "type": "function"
    },
    {
      "inputs": [
        {
          "internalType": "address",
          "name": "newOwner",
          "type": "address"
        }
      ],
      "name": "transferOwnership",
      "outputs": [],
      "stateMutability": "nonpayable",
      "type": "function"
    }
  ],
  "bytecode": "0x6080806040523461005b5760008054336001600160a01b0319821681178355916001600160a01b03909116907f8be0079c531659141344cd1fd0a4f28419497f9722a3daafe3b4186f6b6457e09080a361060590816100618239f35b600080fdfe60406080815260048036101561001457600080fd5b600091823560e01c806314bd2802146104285780634b02fd981461042857806357540a0f146103f9578063715018a61461039f5780638da5cb5b146103735780638fafc7ee146101e9578063a6b5514e146101445763f2fde38b1461007857600080fd5b34610140576020366003190112610140576001600160a01b0382358181169391929084900361013c576100a9610577565b83156100ea57505082546001600160a01b0319811683178455167f8be0079c531659141344cd1fd0a4f28419497f9722a3daafe3b4186f6b6457e08380a380f35b906020608492519162461bcd60e51b8352820152602660248201527f4f776e61626c653a206e6577206f776e657220697320746865207a65726f206160448201526564647265737360d01b6064820152fd5b8480fd5b8280fd5b5091346101e65750610155366104e8565b9160ff610178855160208161016a818861052f565b60028152030190208561055a565b5416156101b257509061019560206101a39385519283809261052f565b60018152030190209061055a565b54815190815260016020820152f35b606490602085519162461bcd60e51b8352820152600e60248201526d2a32b9ba103737ba103a30b5b2b760911b6044820152fd5b80fd5b5090346101405760603660031901126101405767ffffffffffffffff90803582811161013c5761021c903690830161046a565b9160243590811161013c57610234903690830161046a565b9160443591610241610577565b83511561033057606483116102ed5750816102e16102d26020937f586fdb1f859ce29fbd949e3f796307e44a184cf44cc04dff1d98c51648cdbcdf9561029c8951878161028e818d61052f565b60018152030190208361055a565b556102bc885186816102ae818c61052f565b60028152030190208261055a565b600160ff1982541617905587519182809261052f565b0390209486519182809261052f565b0390209451908152a380f35b606490602086519162461bcd60e51b8352820152601760248201527f53636f72652063616e6e6f7420657863656564203130300000000000000000006044820152fd5b606490602086519162461bcd60e51b8352820152601c60248201527f456d706c6f796565204449442063616e6e6f7420626520656d707479000000006044820152fd5b83823461039b578160031936011261039b57905490516001600160a01b039091168152602090f35b5080fd5b83346101e657806003193601126101e6576103b8610577565b80546001600160a01b03198116825581906001600160a01b03167f8be0079c531659141344cd1fd0a4f28419497f9722a3daafe3b4186f6b6457e08280a380f35b83823461039b5760209061042082610195610413366104e8565b929085519283809261052f565b549051908152f35b83823461039b5760209060ff61045f83610451610444366104e8565b929086519283809261052f565b60028152030190209061055a565b541690519015158152f35b81601f820112156104cd5780359067ffffffffffffffff928383116104d25760405193601f8401601f19908116603f01168501908111858210176104d257604052828452602083830101116104cd57816000926020809301838601378301015290565b600080fd5b634e487b7160e01b600052604160045260246000fd5b9060406003198301126104cd5767ffffffffffffffff6004358181116104cd57836105159160040161046a565b926024359182116104cd5761052c9160040161046a565b90565b9081519160005b838110610547575050016000815290565b8060208092840101518185015201610536565b60209061056d926040519384809361052f565b9081520301902090565b6000546001600160a01b0316330361058b57565b606460405162461bcd60e51b815260206004820152602060248201527f4f776e61626c653a2063616c6c6572206973206e6f7420746865206f776e65726044820152fdfea2646970667358221220730cc9e9cde1e39f6b4d891deec96adf02a9de9038e55e96fb4e11fe5990178964736f6c63430008130033",
  "linkReferences": {},
  "deployedLinkReferences": {}
}