{
  "_format": "hh-sol-artifact-1",
  "contractName": "PayrollManagement",
  "sourceName": "contracts/PayrollManagement.sol",
  "abi": [
    {
      "anonymous": false,
      "inputs": [
        {
          "indexed": true,
          "internalType": "address",
          "name": "employee",
          "type": "address"
        },
        {
          "indexed": false,
          "internalType": "uint256",
          "name": "amount",
          "type": "uint256"
        },
        {
          "indexed": false,
          "internalType": "string",
          "name": "period",
          "type": "string"
        },
        {
          "indexed": false,
          "internalType": "uint256",
          "name": "timestamp",
          "type": "uint256"
        }
      ],
      "name": "PaymentExecuted",
      "type": "event"
    },
    {
      "inputs": [],
      "name": "deposit",
      "outputs": [],
      "stateMutability": "payable",
      "type": "function"
    },
    {
      "inputs": [],
      "name": "getBalance",
      "outputs": [
        {
          "internalType": "uint256",
          "name": "",
          "type": "uint256"
        }
      ],
      "stateMutability": "view",
      "type": "function"
    },
    {
      "inputs": [
        {
          "internalType": "address",
          "name": "employee",
          "type": "address"
        },
        {
          "internalType": "string",
          "name": "period",
          "type": "string"
        }
      ],
      "name": "isPaid",
      "outputs": [
        {
          "internalType": "bool",
          "name": "",
          "type": "bool"
        }
      ],
      "stateMutability": "view",
      "type": "function"
    },
    {
      "inputs": [
        {
          "internalType": "address",
          "name": "",
          "type": "address"
        },
        {
          "internalType": "string",
          "name": "",
          "type": "string"
        }
      ],
      "name": "paidRecords",
      "outputs": [
        {
          "internalType": "bool",
          "name": "",
          "type": "bool"
        }
      ],
      "stateMutability": "view",
      "type": "function"
    },
    {
      "inputs": [
        {
          "internalType": "address",
          "name": "employee",
          "type": "address"
        },
        {
          "internalType": "uint256",
          "name": "amount",
          "type": "uint256"
        },
        {
          "internalType": "string",
          "name": "period",
          "type": "string"
        }
      ],
      "name": "paySalary",
      "outputs": [],
      "stateMutability": "payable",
      "type": "function"
    },
    {
      "stateMutability": "payable",
      "type": "receive"
    }
  ],
  "bytecode": "0x6080806040523461001b57600160005561047290816100218239f35b600080fdfe608060409080825260049182361015610023575b505050361561002157600080fd5b005b600092833560e01c92836312065fe01461033e5750826327b277e014610324578263581b755d146100d557508163ba61232b1461007d575063d0e30db01461006c578080610013565b8060031936011261007a5780f35b80fd5b9050346100d15760ff6100bd6020809484610097366103d6565b6001600160a01b0390911683526001845291208551825190948593829085908701610419565b820190815203019020541690519015158152f35b5080fd5b90915060603660031901126103205780356001600160a01b038116919082900361031c5760243560443567ffffffffffffffff81116103185761011b9036908401610358565b9160028654146102d55760028655838652602092600184528587209160ff875186818551968287019761014f81848b610419565b820190815203019020541661029257831561025857834710610215575086808080868982f11561020b579084956101f2608094937f0388abfa25bc6ffe0f7bc09eb3647e7bfb159fc71ca205f8b5ab8b16b0c7a01d978a5260018752828a20878451809284516101c081848b610419565b820190815203019020600160ff1982541617905560608351978896875286015251809381606087015286860190610419565b4290830152601f01601f19168101030190a26001815580f35b85513d88823e3d90fd5b865162461bcd60e51b8152908101859052601760248201527f536f20647520686f7020646f6e67206b686f6e672064750000000000000000006044820152606490fd5b865162461bcd60e51b81529081018590526014602482015273536f207469656e206b686f6e6720686f70206c6560601b6044820152606490fd5b865162461bcd60e51b8152908101859052601860248201527f4461207468616e6820746f616e2063686f206b79206e617900000000000000006044820152606490fd5b606490602086519162461bcd60e51b8352820152601f60248201527f5265656e7472616e637947756172643a207265656e7472616e742063616c6c006044820152fd5b8580fd5b8380fd5b8280fd5b8382346100d15760ff6100bd6020809484610097366103d6565b8490346100d157816003193601126100d157602090478152f35b81601f820112156103bb5780359067ffffffffffffffff928383116103c05760405193601f8401601f19908116603f01168501908111858210176103c057604052828452602083830101116103bb57816000926020809301838601378301015290565b600080fd5b634e487b7160e01b600052604160045260246000fd5b9060406003198301126103bb576004356001600160a01b03811681036103bb57916024359067ffffffffffffffff82116103bb5761041691600401610358565b90565b60005b83811061042c5750506000910152565b818101518382015260200161041c56fea26469706673582212204d6a1635c693615a4c7920bd9d3226919d9f7bb44ba6a7fd0e79fa2270fbf97464736f6c63430008130033",
  "linkReferences": {},
  "deployedLinkReferences": {}
}