{
  "_format": "hh-sol-artifact-1",
  "contractName": "TestManagement",
  "sourceName": "contracts/TestManagement.sol",
  "abi": [
    {
      "inputs": [],
      "stateMutability": "nonpayable",
      "type": "constructor"
    },
    {
      "anonymous": false,
      "inputs": [
        {
          "indexed": true,
          "internalType": "address",
          "name": "previousOwner",
          "type": "address"
        },
        {
          "indexed": true,
          "internalType": "address",
          "name": "newOwner",
          "type": "address"
        }
      ],
      "name": "OwnershipTransferred",
      "type": "event"
    },
    {
      "anonymous": false,
      "inputs": [
        {
          "indexed": true,
          "internalType": "string",
          "name": "departmentId",
          "type": "string"
        },
        {
          "indexed": true,
          "internalType": "string",
          "name": "questionId",
          "type": "string"
        },
        {
          "indexed": false,
          "internalType": "uint256",
          "name": "points",
          "type": "uint256"
        }
      ],
      "name": "QuestionAdded",
      "type": "event"
    },
    {
      "anonymous": false,
      "inputs": [
        {
          "indexed": true,
          "internalType": "string",
          "name": "departmentId",
          "type": "string"
        },
        {
          "indexed": false,
          "internalType": "string",
          "name": "testName",
          "type": "string"
        },
        {
          "indexed": false,
          "internalType": "uint256",
          "name": "totalQuestions",
          "type": "uint256"
        },
        {
          "indexed": false,
          "internalType": "uint256",
          "name": "maxScore",
          "type": "uint256"
        }
      ],
      "name": "TestCreated",
      "type": "event"
    },
    {
      "anonymous": false,
      "inputs": [
        {
          "indexed": true,
          "internalType": "string",
          "name": "departmentId",
          "type": "string"
        },
        {
          "indexed": true,
          "internalType": "string",
          "name": "employeeDid",
          "type": "string"
        },
        {
          "indexed": false,
          "internalType": "uint256",
          "name": "score",
          "type": "uint256"
        },
        {
          "indexed": false,
          "internalType": "uint256",
          "name": "maxScore",
          "type": "uint256"
        },
        {
          "indexed": false,
          "internalType": "bool",
          "name": "passed",
          "type": "bool"
        }
      ],
      "name": "TestSubmitted",
      "type": "event"
    },
    {
      "inputs": [
        {
          "internalType": "string",
          "name": "departmentId",
          "type": "string"
        },
        {
          "internalType": "string",
          "name": "questionId",
          "type": "string"
        },
        {
          "internalType": "string",
          "name": "questionText",
          "type": "string"
        },
        {
          "internalType": "string[]",
          "name": "options",
          "type": "string[]"
        },
        {
          "internalType": "uint256",
          "name": "correctAnswerIndex",
          "type": "uint256"
        },
        {
          "internalType": "uint256",
          "name": "points",
          "type": "uint256"
        }
      ],
      "name": "addQuestion",
      "outputs": [],
      "stateMutability": "nonpayable",
      "type": "function"
    },
    {
      "inputs": [
        {
          "internalType": "string",
          "name": "departmentId",
          "type": "string"
        },
        {
          "internalType": "string",
          "name": "testName",
          "type": "string"
        }
      ],
      "name": "createTest",
      "outputs": [],
      "stateMutability": "nonpayable",
      "type": "function"
    },
    {
      "inputs": [
        {
          "internalType": "string",
          "name": "",
          "type": "string"
        }
      ],
      "name": "departmentTests",
      "outputs": [
        {
          "internalType": "string",
          "name": "departmentId",
          "type": "string"
        },
        {
          "internalType": "string",
          "name": "testName",
          "type": "string"
        },
        {
          "internalType": "bool",
          "name": "isActive",
          "type": "bool"
        },
        {
          "internalType": "uint256",
          "name": "totalQuestions",
          "type": "uint256"
        },
        {
          "internalType": "uint256",
          "name": "maxScore",
          "type": "uint256"
        }
      ],
      "stateMutability": "view",
      "type": "function"
    },
    {
      "inputs": [
        {
          "internalType": "uint256",
          "name": "",
          "type": "uint256"
        }
      ],
      "name": "departmentsWithTests",
      "outputs": [
        {
          "internalType": "string",
          "name": "",
          "type": "string"
        }
      ],
      "stateMutability": "view",
      "type": "function"
    },
    {
      "inputs": [
        {
          "internalType": "string",
          "name": "departmentId",
          "type": "string"
        },
        {
          "internalType": "string",
          "name": "questionId",
          "type": "string"
        }
      ],
      "name": "getQuestion",
      "outputs": [
        {
          "internalType": "string",
          "name": "questionText",
          "type": "string"
        },
        {
          "internalType": "string[]",
          "name": "options",
          "type": "string[]"
        },
        {
          "internalType": "uint256",
          "name": "points",
          "type": "uint256"
        }
      ],
      "stateMutability": "view",
      "type": "function"
    },
    {
      "inputs": [
        {
          "internalType": "string",
          "name": "departmentId",
          "type": "string"
        }
      ],
      "name": "getQuestionIds",
      "outputs": [
        {
          "internalType": "string[]",
          "name": "",
          "type": "string[]"
        }
      ],
      "stateMutability": "view",
      "type": "function"
    },
    {
      "inputs": [
        {
          "internalType": "string",
          "name": "departmentId",
          "type": "string"
        }
      ],
      "name": "getTestInfo",
      "outputs": [
        {
          "internalType": "string",
          "name": "testName",
          "type": "string"
        },
        {
          "internalType": "bool",
          "name": "isActive",
          "type": "bool"
        },
        {
          "internalType": "uint256",
          "name": "totalQuestions",
          "type": "uint256"
        },
        {
          "internalType": "uint256",
          "name": "maxScore",
          "type": "uint256"
        }
      ],
      "stateMutability": "view",
      "type": "function"
    },
    {
      "inputs": [
        {
          "internalType": "string",
          "name": "employeeDid",
          "type": "string"
        },
        {
          "internalType": "string",
          "name": "departmentId",
          "type": "string"
        }
      ],
      "name": "getTestResult",
      "outputs": [
        {
          "internalType": "uint256",
          "name": "score",
          "type": "uint256"
        },
        {
          "internalType": "uint256",
          "name": "maxScore",
          "type": "uint256"
        },
        {
          "internalType": "uint256",
          "name": "submittedAt",
          "type": "uint256"
        }
      ],
      "stateMutability": "view",
      "type": "function"
    },
    {
      "inputs": [
        {
          "internalType": "string",
          "name": "employeeDid",
          "type": "string"
        },
        {
          "internalType": "string",
          "name": "departmentId",
          "type": "string"
        }
      ],
      "name": "getTestScore",
      "outputs": [
        {
          "internalType": "uint256",
          "name": "score",
          "type": "uint256"
        },
        {
          "internalType": "bool",
          "name": "passed",
          "type": "bool"
        }
      ],
      "stateMutability": "view",
      "type": "function"
    },
    {
      "inputs": [
        {
          "internalType": "string",
          "name": "employeeDid",
          "type": "string"
        },
        {
          "internalType": "string",
          "name": "departmentId",
          "type": "string"
        }
      ],
      "name": "hasPassedTest",
      "outputs": [
        {
          "internalType": "bool",
          "name": "",
          "type": "bool"
        }
      ],
      "stateMutability": "view",
      "type": "function"
    },
    {
      "inputs": [
        {
          "internalType": "string",
          "name": "",
          "type": "string"
        },
        {
          "internalType": "string",
          "name": "",
          "type": "string"
        }
      ],
      "name": "hasTakenTest",
      "outputs": [
        {
          "internalType": "bool",
          "name": "",
          "type": "bool"
        }
      ],
      "stateMutability": "view",
      "type": "function"
    },
    {
      "inputs": [],
      "name": "owner",
      "outputs": [
        {
          "internalType": "address",
          "name": "",
          "type": "address"
        }
      ],
      "stateMutability": "view",
      "type": "function"
    },
    {
      "inputs": [],
      "name": "renounceOwnership",
      "outputs": [],
      "stateMutability": "nonpayable",
      "type": "function"
    },
    {
      "inputs": [
        {
          "internalType": "string",
          "name": "departmentId",
          "type": "string"
        },
        {
          "internalType": "bool",
          "name": "isActive",
          "type": "bool"
        }
      ],
      "name": "setTestActive",
      "outputs": [],
      "stateMutability": "nonpayable",
      "type": "function"
    },
    {
      "inputs": [
        {
          "internalType": "string",
          "name": "departmentId",
          "type": "string"
        },
        {
          "internalType": "string",
          "name": "employeeDid",
          "type": "string"
        },
        {
          "internalType": "string[]",
          "name": "questionIds",
          "type": "string[]"
        },
        {
          "internalType": "uint256[]",
          "name": "selectedAnswers",
          "type": "uint256[]"
        }
      ],
      "name": "submitTest",
      "outputs": [],
      "stateMutability": "nonpayable",
      "type": "function"
    },
    {
      "inputs": [
        {
          "internalType": "string",
          "name": "",
          "type": "string"
        },
        {
          "internalType": "string",
          "name": "",
          "type": "string"
        }
      ],
      "name": "testResults",
      "outputs": [
        {
          "internalType": "string",
          "name": "employeeDid",
          "type": "string"
        },
        {
          "internalType": "string",
          "name": "departmentId",
          "type": "string"
        },
        {
          "internalType": "uint256",
          "name": "score",
          "type": "uint256"
        },
        {
          "internalType": "uint256",
          "name": "maxScore",
          "type": "uint256"
        },
        {
          "internalType": "uint256",
          "name": "submittedAt",
          "type": "uint256"
        },
        {
          "internalType": "bool",
          "name": "passed",
          "type": "bool"
        }
      ],
      "stateMutability": "view",
      "type": "function"
    },
    {
      "inputs": [
        {
          "internalType": "address",
          "name": "newOwner",
          "type": "address"
        }
      ],
      "name": "transferOwnership",
      "outputs": [],
      "stateMutability": "nonpayable",
      "type": "function"
    }
  ],
  "bytecode": "0x6080806040523461005f5760008054336001600160a01b0319821681178355916001600160a01b03909116907f8be0079c531659141344cd1fd0a4f28419497f9722a3daafe3b4186f6b6457e09080a3600180556117c390816100658239f35b600080fdfe6080604052600436101561001257600080fd5b60003560e01c806304ee6fdb146110ce57806314bd280214610dbb5780631a92f9af14610ef25780633df2f2fd14610e6557806347dc88d914610df05780634b02fd9814610dbb57806367016b5c14610d21578063715018a614610cc85780637767efb714610c3f5780638da5cb5b14610c16578063a6b5514e14610bbb578063b901d3e014610b1e578063c52b09f914610ab5578063e392a6a914610691578063e65cf43f1461023c578063f2fde38b146101715763f4352a4b146100d757600080fd5b3461016c57606061014960206101396100ef3661133d565b92906040519061012860ff61012183519486818187019761011181838b6111ef565b8101600481520301902088611212565b54166116f7565b6040519384928392519283916111ef565b8101600381520301902090611212565b600281015490600460038201549101549060405192835260208301526040820152f35b600080fd5b3461016c57602036600319011261016c576004356001600160a01b038181169182900361016c576101a0611479565b81156101e857600054826bffffffffffffffffffffffff60a01b821617600055167f8be0079c531659141344cd1fd0a4f28419497f9722a3daafe3b4186f6b6457e0600080a3005b60405162461bcd60e51b815260206004820152602660248201527f4f776e61626c653a206e6577206f776e657220697320746865207a65726f206160448201526564647265737360d01b6064820152608490fd5b3461016c57608036600319011261016c5767ffffffffffffffff60043581811161016c5761026e903690600401611198565b6024803583811161016c57610287903690600401611198565b91604491823585811161016c576102a29036906004016113f8565b90606490813596871161016c573660238801121561016c578660040135966102c9886113e0565b976102d7604051998a611176565b8089528260208a019160051b8301019136831161016c578301905b8282106106815750505060026001541461064157600260015560405161033b60ff6002875193602081818b019661032a81838a6111ef565b81018481520301902001541661160d565b8651156106005760ff61036e6040516020818161035e8d838151938492016111ef565b8101600481520301902087611212565b54166105c6578351885103610573576020610394916040518093819289519283916111ef565b81016002815203019020948351600387015403610533575050506103d660405160208187516103c68183858c016111ef565b8101600381520301902083611212565b906103e185836114e8565b6103ee83600184016114e8565b6004840154600383015542600483015560009260005b8251811015610493576104178184611697565b516104256005880182611212565b9061043a6104338354611238565b15156116ab565b610453610447848c611697565b51916006880190611212565b5561045e828a611697565b51600382015414610479575b5061047490611665565b610404565b6104749195600461048c9201549061168a565b949061046a565b50857f4adb33271e73cac86c4211007b8de86ad13ba3f20e310e29c6c21327003d761f60608661051961051360048b8a85600282015560056104f66104e760208c81604051938285809451938492016111ef565b8101888152030190208c611212565b9160ff1992600184825416179055019081541690550154966115ed565b946115ed565b94604051918252602082015260006040820152a360018055005b7f4d75737420616e7377657220616c6c207175657374696f6e73000000000000009060196040519362461bcd60e51b855260206004860152840152820152fd5b50670dad2e6dac2e8c6d60c31b6084927f5175657374696f6e2049447320616e6420616e7377657273206c656e677468208760286040519562461bcd60e51b875260206004880152860152840152820152fd5b507515195cdd08185b1c9958591e481cdd589b5a5d1d195960521b8560166040519362461bcd60e51b855260206004860152840152820152fd5b507f456d706c6f796565204449442063616e6e6f7420626520656d7074790000000085601c6040519362461bcd60e51b855260206004860152840152820152fd5b7f5265656e7472616e637947756172643a207265656e7472616e742063616c6c0085601f6040519362461bcd60e51b855260206004860152840152820152fd5b81358152602091820191016102f2565b3461016c5760c036600319011261016c5767ffffffffffffffff60043581811161016c576106c3903690600401611198565b9060243581811161016c576106dc903690600401611198565b916044803583811161016c576106f6903690600401611198565b90606493843590811161016c576107119036906004016113f8565b9061071a611479565b60405161073960ff6002875193602081818b019661032a81838a6111ef565b865115610a72576002835110610a2f57825160843510156109ec5760a435156109a9576020610773916040518093819289519283916111ef565b81016002815203019020946005860191610796610790848a611212565b54611238565b6109685750506107a96107bd9187611212565b926107b487856114e8565b600184016114e8565b805190600160401b82116108bc5760028301548260028501558083106108ef575b506020016002830160005260206000206000915b8383106108d257505050506084356003820155600460a4359101556006820190815491600160401b8310156108bc57600183018082558310156108a6576108779361084c86610871956004946000526020600020016114e8565b6003810161085a8154611665565b90550161086a60a435825461168a565b90556115ed565b916115ed565b907fb723586d5f39c1b07c20372fa15a4803fa1fd5a38157640e6cace92bbadfbc11602060405160a4358152a3005b634e487b7160e01b600052603260045260246000fd5b634e487b7160e01b600052604160045260246000fd5b60016020826108e3839451866114e8565b019201920191906107f2565b600284016000526020600020908382015b81830181106109105750506107de565b8061091d60019254611238565b8061092a575b5001610900565b601f908181118414610943575050600081555b8a610923565b61095f60009284845260208420920160051c82018583016114d1565b8183555561093d565b7f5175657374696f6e20616c7265616479206578697374730000000000000000006040519162461bcd60e51b83526020600484015260176024840152820152fd5b60405162461bcd60e51b815260206004820152601d60248201527f506f696e7473206d7573742062652067726561746572207468616e2030000000818401528690fd5b60405162461bcd60e51b815260206004820152601c60248201527f496e76616c696420636f727265637420616e7377657220696e64657800000000818401528690fd5b60405162461bcd60e51b815260206004820152601c60248201527f4d7573742068617665206174206c656173742032206f7074696f6e7300000000818401528690fd5b60405162461bcd60e51b815260206004820152601b60248201527f5175657374696f6e2049442063616e6e6f7420626520656d7074790000000000818401528690fd5b3461016c57602036600319011261016c5760043560055481101561016c57610b06610b1a9160056000527f036b6384b5eca791c62761152d0c79bb0604c104a5fb6f4eb0703f3154bb3db001611272565b604051918291602083526020830190611318565b0390f35b3461016c57610b92610b4c6020610139610b373661133d565b929081604051938285809451938492016111ef565b610b5581611272565b90610b6260018201611272565b6002820154916003810154610ba060ff60056004850154940154169360405197889760c0895260c0890190611318565b908782036020890152611318565b93604086015260608501526080840152151560a08301520390f35b3461016c5760406002610c066020610139610bd53661133d565b9290865190610bf660ff61012183519486818187019761011181838b6111ef565b87519384928392519283916111ef565b0154815190815260016020820152f35b3461016c57600036600319011261016c576000546040516001600160a01b039091168152602090f35b3461016c57604036600319011261016c5760043567ffffffffffffffff811161016c57610c70903690600401611198565b6024359081151580920361016c57610cac6020600292610c8e611479565b6040519061012860ff8683519486818187019761032a81838b6111ef565b810184815203019020019060ff80198354169116179055600080f35b3461016c57600036600319011261016c57610ce1611479565b600080546001600160a01b0319811682556001600160a01b03167f8be0079c531659141344cd1fd0a4f28419497f9722a3daafe3b4186f6b6457e08280a3005b3461016c57610da3610d6260206005610d51610d3c3661133d565b939081604051938285809451938492016111ef565b810160028152030190200190611212565b610d6f6104338254611238565b6004810154610db1610d8f6002610d8860018601611272565b9401611738565b604051948594606086526060860190611318565b908482036020860152611384565b9060408301520390f35b3461016c57602060ff610de482610dd4610b373661133d565b8101600481520301902090611212565b54166040519015158152f35b3461016c57602036600319011261016c5760043567ffffffffffffffff811161016c57610e516006610e416020610e2e610b1a953690600401611198565b81604051938285809451938492016111ef565b8101600281520301902001611738565b604051918291602083526020830190611384565b3461016c57602036600319011261016c5760043567ffffffffffffffff811161016c57610e9e6020610e2e610edc933690600401611198565b8101600281520301902060ff600282015416600382015491610ec7600160048301549201611272565b92604051948594608086526080860190611318565b9215156020850152604084015260608301520390f35b3461016c57610f003661133d565b90610f09611479565b8051156110895760405160ff600283519260208181870195610f2c8183896111ef565b810184815203019020015416611034576004610f5760206000936040518093819288519283916111ef565b81016002815203019020610f6b84826114e8565b610f7885600183016114e8565b60028101600160ff19825416179055826003820155015560055490600160401b8210156108bc5760018201806005558210156108a65761100c81611007611021937fbb867af373362173090741f5d85809028fd0427c9f465ca0e0b35e35a19a3e839560056000527f036b6384b5eca791c62761152d0c79bb0604c104a5fb6f4eb0703f3154bb3db0016114e8565b6115ed565b92604051918291606083526060830190611318565b60006020830152600060408301520390a2005b60405162461bcd60e51b815260206004820152602760248201527f5465737420616c72656164792065786973747320666f72207468697320646570604482015266185c9d1b595b9d60ca1b6064820152608490fd5b60405162461bcd60e51b815260206004820152601d60248201527f4465706172746d656e742049442063616e6e6f7420626520656d7074790000006044820152606490fd5b3461016c57602036600319011261016c5760043567ffffffffffffffff811161016c576111076020610e2e611152933690600401611198565b8101600281520301902061111a81611272565b9061112760018201611272565b60ff60028301541691611160600460038301549201549260405196879660a0885260a0880190611318565b908682036020880152611318565b9215156040850152606084015260808301520390f35b90601f8019910116810190811067ffffffffffffffff8211176108bc57604052565b81601f8201121561016c5780359067ffffffffffffffff82116108bc57604051926111cd601f8401601f191660200185611176565b8284526020838301011161016c57816000926020809301838601378301015290565b60005b8381106112025750506000910152565b81810151838201526020016111f2565b60209061122c9282604051948386809551938492016111ef565b82019081520301902090565b90600182811c92168015611268575b602083101461125257565b634e487b7160e01b600052602260045260246000fd5b91607f1691611247565b906040519182600082549261128684611238565b9081845260019485811690816000146112f557506001146112b2575b50506112b092500383611176565b565b9093915060005260209081600020936000915b8183106112dd5750506112b0935082010138806112a2565b855488840185015294850194879450918301916112c5565b9150506112b094506020925060ff191682840152151560051b82010138806112a2565b90602091611331815180928185528580860191016111ef565b601f01601f1916010190565b90604060031983011261016c5767ffffffffffffffff60043581811161016c578361136a91600401611198565b9260243591821161016c5761138191600401611198565b90565b908082519081815260208091019281808460051b8301019501936000915b8483106113b25750505050505090565b90919293949584806113d0600193601f198682030187528a51611318565b98019301930191949392906113a2565b67ffffffffffffffff81116108bc5760051b60200190565b9080601f8301121561016c57813590611410826113e0565b9261141e6040519485611176565b828452602092838086019160051b8301019280841161016c57848301915b84831061144c5750505050505090565b823567ffffffffffffffff811161016c57869161146e84848094890101611198565b81520192019161143c565b6000546001600160a01b0316330361148d57565b606460405162461bcd60e51b815260206004820152602060248201527f4f776e61626c653a2063616c6c6572206973206e6f7420746865206f776e65726044820152fd5b8181106114dc575050565b600081556001016114d1565b919091825167ffffffffffffffff81116108bc576115068254611238565b601f81116115b0575b50602080601f831160011461154c575081929394600092611541575b50508160011b916000199060031b1c1916179055565b01519050388061152b565b90601f198316958460005282600020926000905b8882106115985750508360019596971061157f575b505050811b019055565b015160001960f88460031b161c19169055388080611575565b80600185968294968601518155019501930190611560565b6115dd90836000526020600020601f840160051c810191602085106115e3575b601f0160051c01906114d1565b3861150f565b90915081906115d0565b611605906020604051928284809451938492016111ef565b810103902090565b1561161457565b60405162461bcd60e51b8152602060048201526024808201527f5465737420646f6573206e6f74206578697374206f72206973206e6f742061636044820152637469766560e01b6064820152608490fd5b60001981146116745760010190565b634e487b7160e01b600052601160045260246000fd5b9190820180921161167457565b80518210156108a65760209160051b010190565b156116b257565b60405162461bcd60e51b815260206004820152601760248201527f5175657374696f6e20646f6573206e6f742065786973740000000000000000006044820152606490fd5b156116fe57565b60405162461bcd60e51b815260206004820152601260248201527115195cdd081b9bdd081cdd589b5a5d1d195960721b6044820152606490fd5b908154611744816113e0565b926117526040519485611176565b818452600090815260208082208186015b848410611771575050505050565b600183819261177f85611272565b81520192019301929061176356fea264697066735822122098458290eab32430991870391c19d202169a60a41a7190a877627b8a307ff2d664736f6c63430008130033",
  "linkReferences": {},
  "deployedLinkReferences": {}
}